:100000000C9462000C948A000C948A000C948A0070
:100010000C948A000C948A000C948A000C948A0038
:100020000C948A000C948A000C948A000C948A0028
:100030000C948A000C948A000C948A000C948A0018
:100040000C9425030C948A000C94F3020C94CD02BA
:100050000C948A000C948A000C948A000C948A00F8
:100060000C946F030C948A0000000000230026000B
:10007000290000000008000201000003040700003E
:1000800000000000000000000000250028002B00F8
:1000900000000000240027002A00040404040404D3
:1000A0000404020202020202030303030303010227
:1000B00004081020408001020408102001020408F6
:1000C00010209A0411241FBECFEFD8E0DEBFCDBFB1
:1000D00011E0A0E0B1E0E0EAFFE002C005900D927F
:1000E000A034B107D9F722E0A0E4B1E001C01D922D
:1000F000AB38B207E1F710E0C2E6D0E004C02197C8
:10010000FE010E94C307C136D107C9F70E94D3047C
:100110000C94CE070C940000CF92DF92EF92FF92E6
:100120000F931F93CF93DF936C017A018B01C0E093
:10013000D0E0CE15DF0589F0D8016D918D01D60193
:10014000ED91FC910190F081E02DC6010995892B7C
:1001500011F47E0102C02196ECCFC701DF91CF914F
:100160001F910F91FF90EF90DF90CF900895FC01C9
:10017000538D448D252F30E0842F90E0821B930B0C
:10018000541710F0CF96089501970895FC01918DB2
:10019000828D981761F0828DDF01A80FB11D5D96E9
:1001A0008C91928D9F5F9F73928F90E008958FEF57
:1001B0009FEF0895FC01918D828D981731F0828D0B
:1001C000E80FF11D858D90E008958FEF9FEF089562
:1001D000FC01918D228D892F90E0805C9F4F821BC6
:1001E00091098F739927089582EE91E00E94E800AB
:1001F00021E0892B09F420E0822F0895FC01848DF1
:10020000DF01A80FB11DA35ABF4F2C91848D90E040
:1002100001968F739927848FA689B7892C93A0891B
:10022000B1898C9180648C93938D848D981306C0D2
:100230000288F389E02D80818F7D80830895EF927D
:10024000FF920F931F93CF93DF93EC0181E0888F90
:100250009B8D8C8D981305C0E889F989808185FD77
:1002600024C0F62E0B8D10E00F5F1F4F0F73112768
:10027000E02E8C8DE8120CC00FB607FCFACFE8898F
:10028000F989808185FFF5CFCE010E94FE00F1CF74
:100290008B8DFE01E80FF11DE35AFF4FF0820B8FAB
:1002A000EA89FB898081806207C0EE89FF896083CB
:1002B000E889F98980818064808381E090E0DF9122
:1002C000CF911F910F91FF90EF900895CF93DF93FF
:1002D000EC01888D8823C9F0EA89FB89808185FD3E
:1002E00005C0A889B9898C9186FD0FC00FB607FC9F
:1002F000F5CF808185FFF2CFA889B9898C9185FFE0
:10030000EDCFCE010E94FE00E7CFDF91CF9108959F
:1003100080E090E0892B29F00E94F40081110C9478
:100320000000089590E0FC01EE58FF4F2491FC017D
:10033000E255FF4F3491FC01E656FF4FE491EE2366
:10034000B9F1222339F1233091F038F42130A9F0AA
:10035000223001F584B58F7D12C0273091F028300E
:10036000A1F02430B9F4809180008F7D03C080918A
:1003700080008F77809380000DC084B58F7784BD17
:1003800009C08091B0008F7703C08091B0008F7D4D
:100390008093B000F0E0EE0FFF1FE859FF4FA591EA
:1003A000B491EC913E2381E090E021F480E0089547
:1003B00080E090E008953FB7F8948091B401909167
:1003C000B501A091B601B091B70126B5A89B05C0B3
:1003D0002F3F19F00196A11DB11D3FBFBA2FA92FC4
:1003E000982F8827820F911DA11DB11DBC01CD0141
:1003F00042E0660F771F881F991F4A95D1F708952D
:1004000085ED8093BC008091BC0084FDFCCF1092F0
:100410008901089508958FEF9FEF08958FEF9FEF63
:1004200008958091400190E09195819591090895FA
:10043000CA01413288F420918901243069F4409343
:100440006301FB0141E451E0DA012A2F241B281744
:1004500018F421912D93F9CF08958091890184306A
:1004600029F481E0809363016093410181E090E091
:100470000895089580E090E008958F929F92AF9242
:10048000BF920F931F93CF93DF93CDB7DEB7A197A2
:100490000FB6F894DEBF0FBECDBF19A2423008F4EC
:1004A0004AE08E010F5D1F4F842E912CA12CB12CA0
:1004B000A50194010E94A107E62FB901CA010150CC
:1004C0001109EA3014F4E05D01C0E95CD801EC9355
:1004D000232B242B252B61F70115110571F0F80151
:1004E00001900020E9F73197AF01401B510BB80193
:1004F00082EE91E00E948C0002C080E090E0A19624
:100500000FB6F894DEBF0FBECDBFDF91CF911F9124
:100510000F91BF90AF909F908F900895CF92DF92F0
:10052000EF92FF92CF93DF936C01990FEE08FF08D3
:10053000F7FE1AC0E091E201F091E3010190F08131
:10054000E02D6DE282EE91E00995EC0166277727B8
:10055000CB016C197D098E099F094AE00E943D027A
:100560007C01EC0EFD1E06C04AE0C701B6010E94E8
:100570003D027C0142E050E06CE371E082EE91E0EC
:100580000E948C008E0D9F1DDF91CF91FF90EF9008
:10059000DF90CF9008950E94C9071F920F920FB667
:1005A0000F9211242F933F934F935F936F937F93F9
:1005B0008F939F93AF93BF93EF93FF9382EE91E05E
:1005C0000E94FE00FF91EF91BF91AF919F918F919B
:1005D0007F916F915F914F913F912F910F900FBE3F
:1005E0000F901F9018951F920F920FB60F92112423
:1005F0002F938F939F93EF93FF93E091F201F091EC
:10060000F3018081E091F801F091F90182FD12C0BF
:1006100090818091FB018F5F8F732091FC01821785
:1006200051F0E091FB01F0E0EE51FE4F958F809389
:10063000FB0101C08081FF91EF919F918F912F91DC
:100640000F900FBE0F901F9018951F920F920FB62C
:100650000F9211242F933F938F939F93AF93BF9348
:100660008091B0019091B101A091B201B091B3011C
:100670003091AF0123E0230F2D3720F40196A11D07
:10068000B11D05C026E8230F0296A11DB11D2093C0
:10069000AF018093B0019093B101A093B201B093E8
:1006A000B3018091B4019091B501A091B601B091D0
:1006B000B7010196A11DB11D8093B4019093B501BE
:1006C000A093B601B093B701BF91AF919F918F9165
:1006D0003F912F910F900FBE0F901F9018951F9272
:1006E0000F920FB60F9211242F933F934F935F9366
:1006F0006F937F938F939F93AF93BF93EF93FF93EA
:100700008091B900887F803609F49CC068F58832F2
:1007100009F45BC090F4803109F454C038F48823A4
:1007200009F4F3C0883009F44DC0F3C0883109F4EE
:100730004CC0803209F45DC0ECC0803409F468C05C
:1007400048F4803309F455C0883309F0E2C080933F
:100750008801D5C0803509F44FC0883509F45DC0E3
:10076000883409F0D6C0D3C0883909F4C4C0A8F4CD
:10077000883709F467C038F4883609F463C08037D5
:1007800009F460C0C6C0883809F4B5C0803909F4DE
:100790005FC0803809F0BDC05BC0803B09F483C0F6
:1007A00038F4803A09F466C0883A09F47CC0B1C0D4
:1007B000803C09F4A4C0883C09F4A1C0883B09F43A
:1007C00087C0A7C08091AE0110C09091AD0180910B
:1007D000AC01981770F5E091AD0181E08E0F809328
:1007E000AD01F0E0E457FE4F80818093BB0085ECC3
:1007F00083C0809388018BC0E091AD0181E08E0FB2
:100800008093AD018091BB00F0E0E457FE4F808300
:100810009091AD018091AC016BC0E091AD0181E0A0
:100820008E0F8093AD018091BB00F0E0E457FE4F46
:10083000808380918B0181116AC081E080938A015D
:1008400084EA5EC083E08093890110928701CFCF54
:1008500080918701803208F04EC0E091870181E0ED
:100860008E0F809387018091BB00F0E0E959FE4F25
:100870008083BDCF80918701803230F4E091870181
:10088000F0E0E959FE4F10820E940002609187015A
:1008900070E0E0916501F091660187E691E00995CD
:1008A000109287012CC084E080938901109264012A
:1008B00010926301E0916101F091620109958091CC
:1008C0006301811105C081E08093630110924101B1
:1008D000E091640181E08E0F80936401F0E0EF5BB2
:1008E000FE4F80818093BB009091640180916301F1
:1008F000981708F47CCF85E88093BC000AC085EC8B
:100900008093BC001092890104C0109288010E945B
:100910000002FF91EF91BF91AF919F918F917F91D5
:100920006F915F914F913F912F910F900FBE0F905C
:100930001F901895E2EEF1E01382128288EE93E0A8
:10094000A0E0B0E084839583A683B7832CE131E0F7
:100950003183208325EC30E03587248724EC30E098
:100960003787268720EC30E0318B208B21EC30E07C
:10097000338B228B22EC30E0358B248B26EC30E05D
:10098000378B268B118E128E138E148EEFE7F2E0CA
:100990001382128284839583A683B7838EE291E0CB
:1009A000918380830895789484B5826084BD84B5F2
:1009B000816084BD85B5826085BD85B5816085BD5A
:1009C00080916E00816080936E0010928100809112
:1009D000810082608093810080918100816080939A
:1009E0008100809180008160809380008091B100BF
:1009F00084608093B1008091B00081608093B000EA
:100A000080917A00846080937A0080917A0082607D
:100A100080937A0080917A00816080937A0080913F
:100A20007A00806880937A001092C100E091F20110
:100A3000F091F30182E08083E091EE01F091EF010B
:100A40001082E091F001F091F10187E6808310922D
:100A5000FA01E091F601F091F70186E08083E091E0
:100A6000F401F091F501808180618083E091F401CF
:100A7000F091F501808188608083E091F401F0912C
:100A8000F501808180688083E091F401F091F501A7
:100A900080818F7D80831092800081E0809381002F
:100AA00010928200A0E0B1E08D919D919927FC0108
:100AB000E255FF4F2491FC01E656FF4F84918823B5
:100AC000C9F090E0880F991FFC01E057FF4F459156
:100AD0005491FC01EA57FF4FC591D4919FB7F89408
:100AE000FA0180812095822380838881E22FE82388
:100AF000E8839FBFF1E0A832BF07B1F60E94DB0197
:100B00004B015C0188EEC82E83E0D82EE12CF12C3D
:100B10000E94DB01DC01CB0188199909AA09BB09F4
:100B2000883E9340A105B10558F021E0C21AD108D2
:100B3000E108F10848EE840E43E0941EA11CB11CAC
:100B4000C114D104E104F10419F7C1E08DE00E9461
:100B50009201892BD9F31092850010928400C093E2
:100B6000810084E090E00E948E022091E0013091AB
:100B7000E101B901032E000C880B990B2C3D354087
:100B80006CF40E94A80629E33EE843E65EE30E9477
:100B900034072BEA3AEA46EA53E40CC00E94A8065E
:100BA00020E030E040E85EE30E94340720E030E8D7
:100BB0004BEB53E40E9403060E9470067093BF0142
:100BC0006093BE018DE00E9492010197D9F31092CB
:100BD0008100609184007091850080E090E00E9427
:100BE000A60620E030E040E85DE30E9434070E9462
:100BF00070067093E1016093E001CB010E948E02C8
:100C00000E948801A3CF5058BB27AA270E941B0629
:100C10000C94FA060E94EC0638F00E94F30620F0CD
:100C200039F49F3F19F426F40C94E9060EF4E0958C
:100C3000E7FB0C94E306E92F0E940B0758F3BA1761
:100C4000620773078407950720F079F4A6F50C94E2
:100C50002D070EF4E0950B2EBA2FA02D0B01B90134
:100C600090010C01CA01A0011124FF27591B99F022
:100C7000593F50F4503E68F11A16F040A22F232F2E
:100C8000342F4427585FF3CF469537952795A7957E
:100C9000F0405395C9F77EF41F16BA0B620B730B25
:100CA000840BBAF09150A1F0FF0FBB1F661F771F96
:100CB000881FC2F70EC0BA0F621F731F841F48F44B
:100CC000879577956795B795F7959E3F08F0B0CFD4
:100CD0009395880F08F09927EE0F979587950895BB
:100CE0000E9477066894B1110C942E0708950E9413
:100CF000130788F09F5798F0B92F9927B751B0F094
:100D0000E1F0660F771F881F991F1AF0BA95C9F78F
:100D100014C0B13091F00E942D07B1E008950C94F9
:100D20002D07672F782F8827B85F39F0B93FCCF3AC
:100D3000869577956795B395D9F73EF4909580950C
:100D4000709561957F4F8F4F9F4F0895E89409C02C
:100D500097FB3EF490958095709561957F4F8F4FEE
:100D60009F4F9923A9F0F92F96E9BB279395F69504
:100D7000879577956795B795F111F8CFFAF4BB0F82
:100D800011F460FF1BC06F5F7F4F8F4F9F4F16C0E6
:100D9000882311F096E911C0772321F09EE8872F70
:100DA000762F05C0662371F096E8862F70E060E02C
:100DB0002AF09A95660F771F881FDAF7880F9695A5
:100DC000879597F9089597F99F6780E870E060E04C
:100DD00008959FEF80EC089500240A9416161706D4
:100DE00018060906089500240A941216130614061C
:100DF00005060895092E0394000C11F4882352F07F
:100E0000BB0F40F4BF2B11F460FF04C06F5F7F4F36
:100E10008F4F9F4F089557FD9058440F551F59F01D
:100E20005F3F71F04795880F97FB991F61F09F3FD7
:100E300079F087950895121613061406551FF2CF00
:100E40004695F1DF08C0161617061806991FF1CF50
:100E500086957105610508940895E894BB27662777
:100E60007727CB0197F908950E9447070C94FA065B
:100E70000E94EC0638F00E94F30620F0952311F052
:100E80000C94E3060C94E90611240C942E070E949E
:100E90000B0770F3959FC1F3950F50E0551F629FAC
:100EA000F001729FBB27F00DB11D639FAA27F00DC3
:100EB000B11DAA1F649F6627B00DA11D661F829FEA
:100EC0002227B00DA11D621F739FB00DA11D621FCF
:100ED000839FA00D611D221F749F3327A00D611DEC
:100EE000231F849F600D211D822F762F6A2F1124CE
:100EF0009F5750409AF0F1F088234AF0EE0FFF1F01
:100F0000BB1F661F771F881F91505040A9F79E3F57
:100F1000510580F00C94E3060C942E075F3FE4F338
:100F2000983ED4F3869577956795B795F795E795AD
:100F30009F5FC1F7FE2B880F911D9695879597F9B6
:100F40000895A1E21A2EAA1BBB1BFD010DC0AA1F0A
:100F5000BB1FEE1FFF1FA217B307E407F50720F022
:100F6000A21BB30BE40BF50B661F771F881F991F9D
:100F70001A9469F760957095809590959B01AC01E6
:100F8000BD01CF010895EE0FFF1F0590F491E02DF4
:100F9000099481E090E0F8940C94CE07F894FFCF88
:100FA00009000A000B000C000D00060005000E00F1
:100FB00004000F0010001100000000001F018C0051
:100FC000B7006601E800C600DA00000000002D024C
:100FD00018023A020A0211020E020B020D0A000068
:107E0000112484B714BE81FFF0D085E080938100F7
:107E100082E08093C00088E18093C10086E0809377
:107E2000C20080E18093C4008EE0C9D0259A86E02C
:107E300020E33CEF91E0309385002093840096BBD3
:107E4000B09BFECF1D9AA8958150A9F7CC24DD24C4
:107E500088248394B5E0AB2EA1E19A2EF3E0BF2EE7
:107E6000A2D0813461F49FD0082FAFD0023811F036
:107E7000013811F484E001C083E08DD089C08234E0
:107E800011F484E103C0853419F485E0A6D080C0E4
:107E9000853579F488D0E82EFF2485D0082F10E0AE
:107EA000102F00270E291F29000F111F8ED06801E7
:107EB0006FC0863521F484E090D080E0DECF843638
:107EC00009F040C070D06FD0082F6DD080E0C81688
:107ED00080E7D80618F4F601B7BEE895C0E0D1E017
:107EE00062D089930C17E1F7F0E0CF16F0E7DF06D8
:107EF00018F0F601B7BEE89568D007B600FCFDCFD4
:107F0000A601A0E0B1E02C9130E011968C91119780
:107F100090E0982F8827822B932B1296FA010C0160
:107F200087BEE89511244E5F5F4FF1E0A038BF0790
:107F300051F7F601A7BEE89507B600FCFDCF97BE46
:107F4000E89526C08437B1F42ED02DD0F82E2BD052
:107F50003CD0F601EF2C8F010F5F1F4F84911BD097
:107F6000EA94F801C1F70894C11CD11CFA94CF0C13
:107F7000D11C0EC0853739F428D08EE10CD085E9AC
:107F80000AD08FE07ACF813511F488E018D01DD067
:107F900080E101D065CF982F8091C00085FFFCCF94
:107FA0009093C60008958091C00087FFFCCF809118
:107FB000C00084FD01C0A8958091C6000895E0E648
:107FC000F0E098E1908380830895EDDF803219F02E
:107FD00088E0F5DFFFCF84E1DECF1F93182FE3DFCA
:107FE0001150E9F7F2DF1F91089580E0E8DFEE27F6
:047FF000FF270994CA
:027FFE00040479
:0400000300007E007B
:00000001FF