:100000000C9462000C948A000C948A000C948A0070
:100010000C948A000C948A000C948A000C948A0038
:100020000C948A000C948A000C948A000C948A0028
:100030000C948A000C948A000C948A000C948A0018
:100040000C94C2030C948A000C9490030C946A03E1
:100050000C948A000C948A000C948A000C948A00F8
:100060000C940C040C948A0000000000230026006D
:10007000290000000008000201000003040700003E
:1000800000000000000000000000250028002B00F8
:1000900000000000240027002A00040404040404D3
:1000A0000404020202020202030303030303010227
:1000B00004081020408001020408102001020408F6
:1000C0001020370511241FBECFEFD8E0DEBFCDBF13
:1000D00011E0A0E0B1E0E8E3F2E102C005900D928A
:1000E000A034B107D9F722E0A0E4B1E001C01D922D
:1000F000A53BB207E1F710E0C2E6D0E004C02197CB
:10010000FE010E940F09C136D107C9F70E94700590
:100110000C941A090C940000CF92DF92EF92FF9298
:100120000F931F93CF93DF936C017A018B01C0E093
:10013000D0E0CE15DF0589F0D8016D918D01D60193
:10014000ED91FC910190F081E02DC6010995892B7C
:1001500011F47E0102C02196ECCFC701DF91CF914F
:100160001F910F91FF90EF90DF90CF900895FC01C9
:10017000538D448D252F30E0842F90E0821B930B0C
:10018000541710F0CF96089501970895FC01918DB2
:10019000828D981761F0828DDF01A80FB11D5D96E9
:1001A0008C91928D9F5F9F73928F90E008958FEF57
:1001B0009FEF0895FC01918D828D981731F0828D0B
:1001C000E80FF11D858D90E008958FEF9FEF089562
:1001D000FC01918D228D892F90E0805C9F4F821BC6
:1001E00091098F73992708958CE092E00E94E800AE
:1001F00021E0892B09F420E0822F0895FC01848DF1
:10020000DF01A80FB11DA35ABF4F2C91848D90E040
:1002100001968F739927848FA689B7892C93A0891B
:10022000B1898C9180648C93938D848D981306C0D2
:100230000288F389E02D80818F7D80830895EF927D
:10024000FF920F931F93CF93DF93EC0181E0888F90
:100250009B8D8C8D981305C0E889F989808185FD77
:1002600024C0F62E0B8D10E00F5F1F4F0F73112768
:10027000E02E8C8DE8120CC00FB607FCFACFE8898F
:10028000F989808185FFF5CFCE010E94FE00F1CF74
:100290008B8DFE01E80FF11DE35AFF4FF0820B8FAB
:1002A000EA89FB898081806207C0EE89FF896083CB
:1002B000E889F98980818064808381E090E0DF9122
:1002C000CF911F910F91FF90EF900895CF93DF93FF
:1002D000EC01888D8823C9F0EA89FB89808185FD3E
:1002E00005C0A889B9898C9186FD0FC00FB607FC9F
:1002F000F5CF808185FFF2CFA889B9898C9185FFE0
:10030000EDCFCE010E94FE00E7CFDF91CF9108959F
:1003100080E090E0892B29F00E94F40081110C9478
:1003200000000895833081F028F4813099F0823004
:10033000A1F008958730A9F08830B9F08430D1F465
:10034000809180008F7D03C0809180008F778093A3
:100350008000089584B58F7702C084B58F7D84BDF9
:1003600008958091B0008F7703C08091B0008F7D99
:100370008093B0000895CF93DF93282F30E0F901E8
:10038000EE58FF4F8491F901E255FF4FD491F901E6
:10039000E656FF4FC491CC2391F081110E94920147
:1003A000EC2FF0E0EE0FFF1FE859FF4FA591B4913D
:1003B000EC91ED2381E090E021F480E002C080E048
:1003C00090E0DF91CF9108951F93CF93DF93282F73
:1003D00030E0F901EE58FF4F8491F901E255FF4FEB
:1003E000D491F901E656FF4FC491CC23C9F0162FE2
:1003F00081110E949201EC2FF0E0EE0FFF1FEA57EF
:10040000FF4FA591B4918FB7F894111105C09C913D
:10041000ED2FE095E92302C0EC91ED2BEC938FBF1B
:10042000DF91CF911F9108953FB7F8948091D30148
:100430009091D401A091D501B091D60126B5A89B89
:1004400005C02F3F19F00196A11DB11D3FBFBA2F66
:10045000A92F982F8827820F911DA11DB11DBC01C6
:10046000CD0142E0660F771F881F991F4A95D1F78B
:10047000089585ED8093BC008091BC0084FDFCCF85
:100480001092D9010895089581E090E03091DD0146
:100490002091DC01321710F480E090E09195819575
:1004A000910908958091DD019091DC01891730F464
:1004B0008F5F8093DD0180E090E008958FEF9FEFE4
:1004C00008958091DC0190E02091DD01821B91096B
:1004D0000895CF92DF92EF92FF920F931F93CF93E5
:1004E000DF937C018A0180916201882389F0EB010E
:1004F0006B01C40ED51ECC15DD05F1F06991D70155
:10050000ED91FC910190F081E02DC7010995F3CFA9
:10051000842F413288F49091D901943069F440934A
:100520008501FB0123E631E0D9019A2F921B981730
:1005300018F491919D93F9CFC801DF91CF911F914C
:100540000F91FF90EF90DF90CF900895209162017E
:100550002223C9F02091DA01203240F021E030E07E
:10056000FC013383228380E090E008958091DB01D9
:10057000E82FF0E0EE5BFE4F60838F5F8093DB013E
:100580008093DA0109C08091D901843029F481E097
:10059000809385016093630181E090E00895089560
:1005A00080E090E00895CF92DF92EF92FF921F9348
:1005B000CF93DF93E0914101F0E0E050FF4F1081D5
:1005C00081E080936201109340011092DB01109250
:1005D000DA01C2EED1E08CE9E82EFF24FA9494E629
:1005E000C92ED12CFE01888199818C399F4F14F43A
:1005F000F982E882888199818536910514F0D98243
:10060000C8822296608189EA92E00E94A60282E076
:10061000CA30D80739F78091DA01813208F042C038
:100620009091D9019111FCCF92E09093D90191E082
:100630009093D8019FEF9093AA011092CC018093E0
:10064000CB01A2E4B1E02BEA31E0F9019E2F921B2D
:10065000981718F49D919193F9CF1092CD01809144
:10066000CD01110F182B1093CD018091D70181304E
:1006700041F41092D7018091CD018093BB0085ECAD
:1006800001C085EE8093BC008091D9018230E1F3F6
:100690008091AA018F3F31F08091AA01803211F040
:1006A0008091AA011092DB011092DA01109262018E
:1006B0008091410190E001968370992780934101D8
:1006C000DF91CF911F91FF90EF90DF90CF90089531
:1006D0000E9415091F920F920FB60F9211242F93AB
:1006E0003F934F935F936F937F938F939F93AF93BA
:1006F000BF93EF93FF938CE092E00E94FE00FF9186
:10070000EF91BF91AF919F918F917F916F915F9189
:100710004F913F912F910F900FBE0F901F90189502
:100720001F920F920FB60F9211242F938F939F93C6
:10073000EF93FF93E0911C02F0911D028081E09104
:100740002202F091230282FD12C090818091250245
:100750008F5F8F7320912602821751F0E09125025E
:10076000F0E0E45FFD4F958F8093250201C080810A
:10077000FF91EF919F918F912F910F900FBE0F904E
:100780001F9018951F920F920FB60F9211242F935E
:100790003F938F939F93AF93BF938091CF0190919D
:1007A000D001A091D101B091D2013091CE0123E0CE
:1007B000230F2D3720F40196A11DB11D05C026E899
:1007C000230F0296A11DB11D2093CE018093CF016E
:1007D0009093D001A093D101B093D2018091D30125
:1007E0009091D401A091D501B091D6010196A11D9F
:1007F000B11D8093D3019093D401A093D501B09300
:10080000D601BF91AF919F918F913F912F910F9002
:100810000FBE0F901F9018951F920F920FB60F9258
:1008200011242F933F934F935F936F937F938F93F5
:100830009F93AF93BF93EF93FF938091B900887F0D
:10084000803609F49CC068F5883209F45BC090F4E6
:10085000803109F454C038F4882309F4F3C0883097
:1008600009F44DC0F3C0883109F44CC0803209F45A
:100870005DC0ECC0803409F468C048F4803309F4EA
:1008800055C0883309F0E2C08093AA01D5C08035F5
:1008900009F44FC0883509F45DC0883409F0D6C02A
:1008A000D3C0883909F4C4C0A8F4883709F467C0F4
:1008B00038F4883609F463C0803709F460C0C6C0D4
:1008C000883809F4B5C0803909F45FC0803809F070
:1008D000BDC05BC0803B09F483C038F4803A09F4A2
:1008E00066C0883A09F47CC0B1C0803C09F4A4C059
:1008F000883C09F4A1C0883B09F487C0A7C0809157
:10090000CD0110C09091CC018091CB01981770F56A
:10091000E091CC0181E08E0F8093CC01F0E0E555B1
:10092000FE4F80818093BB0085EC83C08093AA0139
:100930008BC0E091CC0181E08E0F8093CC0180913F
:10094000BB00F0E0E555FE4F80839091CC01809193
:10095000CB016BC0E091CC0181E08E0F8093CC0184
:100960008091BB00F0E0E555FE4F80838091D80177
:1009700081116AC081E08093D70184EA5EC083E080
:100980008093D9011092A901CFCF8091A901803223
:1009900008F04EC0E091A90181E08E0F8093A9017B
:1009A0008091BB00F0E0E757FE4F8083BDCF809180
:1009B000A901803230F4E091A901F0E0E757FE4F41
:1009C00010820E9439026091A90170E0E0918701D4
:1009D000F091880189E891E009951092A9012CC055
:1009E00084E08093D9011092860110928501E091F4
:1009F0008301F0918401099580918501811105C0E1
:100A000081E08093850110926301E091860181E08D
:100A10008E0F80938601F0E0ED59FE4F8081809328
:100A2000BB009091860180918501981708F47CCFD6
:100A300085E88093BC000AC085EC8093BC001092CE
:100A4000D90104C01092AA010E943902FF91EF91CE
:100A5000BF91AF919F918F917F916F915F914F91D6
:100A60003F912F910F900FBE0F901F901895ECE0C3
:100A7000F2E01382128288EE93E0A0E0B0E084837B
:100A80009583A683B78320E231E03183208325EC70
:100A900030E03587248724EC30E03787268720EC48
:100AA00030E0318B208B21EC30E0338B228B22EC39
:100AB00030E0358B248B26EC30E0378B268B118E83
:100AC000128E138E148EE9EAF2E01382128284836E
:100AD0009583A683B78382E391E091838083089511
:100AE000789484B5826084BD84B5816084BD85B509
:100AF000826085BD85B5816085BD80916E00816015
:100B000080936E00109281008091810082608093BA
:100B100081008091810081608093810080918000BC
:100B20008160809380008091B10084608093B100E7
:100B30008091B00081608093B00080917A008460E1
:100B400080937A0080917A00826080937A0080910D
:100B50007A00816080937A0080917A008068809327
:100B60007A001092C100E6EBF0E02491E2EAF0E0B6
:100B70008491882399F090E0880F991FFC01E05739
:100B8000FF4FA591B491FC01EA57FF4F85919491D5
:100B90008FB7F894EC91E22BEC938FBF1092DD01AC
:100BA0001092DC011092DB011092DA011092D9014F
:100BB000C1E0C093D8011092D70161E082E10E94A8
:100BC000E40161E083E10E94E4018091B9008E7F3D
:100BD0008093B9008091B9008D7F8093B90088E43B
:100BE0008093B80085E48093BC008CE08093B800CB
:100BF000E0911C02F0911D0282E08083E0911802D6
:100C0000F09119021082E0911A02F0911B0287E61E
:100C1000808310922402E0912002F091210286E06C
:100C20008083E0911E02F0911F02808180618083A9
:100C3000E0911E02F0911F02808188608083E09124
:100C40001E02F0911F02808180688083E0911E0265
:100C5000F0911F0280818F7D808310928000C0936D
:100C6000810010928200A4E0B1E08D919D919927BE
:100C7000FC01E255FF4F2491FC01E656FF4F8491A1
:100C80008823C9F090E0880F991FFC01E057FF4FBF
:100C900045915491FC01EA57FF4FC591D4919FB7FC
:100CA000F894FA0180812095822380838881E22F45
:100CB000E823E8839FBFF1E0AC32BF07B1F60E94A2
:100CC00014024B015C0158EEC52E53E0D52EE12CE9
:100CD000F12C0E941402DC01CB0188199909AA09A0
:100CE000BB09883E9340A105B10558F021E0C21A26
:100CF000D108E108F10848EE840E43E0941EA11CDF
:100D0000B11CC114D104E104F10419F7C0EED1E023
:100D100004E011E0E12CF12CE114F10429F489E064
:100D20000E94BB010197D9F3F801D0808D2D0E945C
:100D3000BB01892BC9F3E114F10421F461E088E0DF
:100D40000E94E401109285001092840081E080935B
:100D50008100E114F10409F469C0A0900A02B09086
:100D60000B02B5010B2C000C880B990BFCEDAF1698
:100D7000F5E0BF066CF00E94160820E030E040E885
:100D80005EE30E94A20820E030E84BEB53E40CC085
:100D90000E94160829E33EE843E65EE30E94A208AB
:100DA0002BEA3AEA46EA53E40E9471070E94DE0702
:100DB0007983688328E0E216F104C1F52091E0010F
:100DC0003091E10140EDA41647E0B4063CF02F5FFE
:100DD0003F4F3093E1012093E00124C022303105E0
:100DE000E9F42091DE013091DF018091F0019091D2
:100DF000F101F901EE0FFF1FE650FE4F9183808352
:100E00002730310521F41092E1011092E0012F5FAB
:100E10003F4F3093DF012093DE0108C01092E101C3
:100E20001092E0011092DF011092DE010E94D302C5
:100E30008D2D0E94BB010197D9F310928100609122
:100E400084007091850080E090E00E94140820E00A
:100E500030E040E85DE30E94A2080E94DE079B01AB
:100E600070930B0260930A028FEFE81AF80A229639
:100E70000E5F1F4FEBE0EE16F10409F04DCFB90104
:100E8000032E000C880B990B2C3D35406CF00E9412
:100E9000160820E030E040E85EE30E94A20820E06F
:100EA00030E84BEB53E40CC00E94160829E33EE8FF
:100EB00043E65EE30E94A2082BEA3AEA46EA53E4DC
:100EC0000E9471070E94DE077093F7016093F6019C
:100ED0000E94D30260E088E00E94E4010E94880141
:100EE00015CF5058BB27AA270E9489070C94680881
:100EF0000E945A0838F00E94610820F039F49F3FA0
:100F000019F426F40C9457080EF4E095E7FB0C94C2
:100F10005108E92F0E94790858F3BA17620773073E
:100F20008407950720F079F4A6F50C949B080EF43D
:100F3000E0950B2EBA2FA02D0B01B90190010C01E9
:100F4000CA01A0011124FF27591B99F0593F50F401
:100F5000503E68F11A16F040A22F232F342F442759
:100F6000585FF3CF469537952795A795F040539551
:100F7000C9F77EF41F16BA0B620B730B840BBAF021
:100F80009150A1F0FF0FBB1F661F771F881FC2F78C
:100F90000EC0BA0F621F731F841F48F487957795A0
:100FA0006795B795F7959E3F08F0B0CF9395880F5A
:100FB00008F09927EE0F9795879508950E94E50709
:100FC0006894B1110C949C0808950E94810888F0DF
:100FD0009F5798F0B92F9927B751B0F0E1F0660FFD
:100FE000771F881F991F1AF0BA95C9F714C0B1303E
:100FF00091F00E949B08B1E008950C949B08672F24
:10100000782F8827B85F39F0B93FCCF3869577956C
:101010006795B395D9F73EF4909580957095619555
:101020007F4F8F4F9F4F0895E89409C097FB3EF480
:1010300090958095709561957F4F8F4F9F4F992325
:10104000A9F0F92F96E9BB279395F69587957795A3
:101050006795B795F111F8CFFAF4BB0F11F460FF63
:101060001BC06F5F7F4F8F4F9F4F16C0882311F0BB
:1010700096E911C0772321F09EE8872F762F05C0CF
:10108000662371F096E8862F70E060E02AF09A956A
:10109000660F771F881FDAF7880F9695879597F95F
:1010A000089597F99F6780E870E060E008959FEFEA
:1010B00080EC089500240A941616170618060906EF
:1010C000089500240A9412161306140605060895BE
:1010D000092E0394000C11F4882352F0BB0F40F446
:1010E000BF2B11F460FF04C06F5F7F4F8F4F9F4F86
:1010F000089557FD9058440F551F59F05F3F71F008
:101100004795880F97FB991F61F09F3F79F087956E
:101110000895121613061406551FF2CF4695F1DFF7
:1011200008C0161617061806991FF1CF8695710587
:10113000610508940895E894BB2766277727CB01BB
:1011400097F908950E94B5080C9468080E945A08FF
:1011500038F00E94610820F0952311F00C9451089A
:101160000C94570811240C949C080E94790870F381
:10117000959FC1F3950F50E0551F629FF001729F3C
:10118000BB27F00DB11D639FAA27F00DB11DAA1F4B
:10119000649F6627B00DA11D661F829F2227B00D98
:1011A000A11D621F739FB00DA11D621F839FA00D23
:1011B000611D221F749F3327A00D611D231F849F73
:1011C000600D211D822F762F6A2F11249F575040CA
:1011D0009AF0F1F088234AF0EE0FFF1FBB1F661F45
:1011E000771F881F91505040A9F79E3F510580F00E
:1011F0000C9451080C949C085F3FE4F3983ED4F3A0
:10120000869577956795B795F795E7959F5FC1F7B1
:10121000FE2B880F911D9695879597F90895EE0FEF
:10122000FF1F0590F491E02D099481E090E0F8947F
:081230000C941A09F894FFCF99
:1012380008090A0B09000A000B000C00030006004D
:1012480005000E0004000F0010001100000000004F
:101258001F018C00B7006601E800C600DA00000034
:101268000000A6026902D00243026102520244024F
:107E0000112484B714BE81FFF0D085E080938100F7
:107E100082E08093C00088E18093C10086E0809377
:107E2000C20080E18093C4008EE0C9D0259A86E02C
:107E300020E33CEF91E0309385002093840096BBD3
:107E4000B09BFECF1D9AA8958150A9F7CC24DD24C4
:107E500088248394B5E0AB2EA1E19A2EF3E0BF2EE7
:107E6000A2D0813461F49FD0082FAFD0023811F036
:107E7000013811F484E001C083E08DD089C08234E0
:107E800011F484E103C0853419F485E0A6D080C0E4
:107E9000853579F488D0E82EFF2485D0082F10E0AE
:107EA000102F00270E291F29000F111F8ED06801E7
:107EB0006FC0863521F484E090D080E0DECF843638
:107EC00009F040C070D06FD0082F6DD080E0C81688
:107ED00080E7D80618F4F601B7BEE895C0E0D1E017
:107EE00062D089930C17E1F7F0E0CF16F0E7DF06D8
:107EF00018F0F601B7BEE89568D007B600FCFDCFD4
:107F0000A601A0E0B1E02C9130E011968C91119780
:107F100090E0982F8827822B932B1296FA010C0160
:107F200087BEE89511244E5F5F4FF1E0A038BF0790
:107F300051F7F601A7BEE89507B600FCFDCF97BE46
:107F4000E89526C08437B1F42ED02DD0F82E2BD052
:107F50003CD0F601EF2C8F010F5F1F4F84911BD097
:107F6000EA94F801C1F70894C11CD11CFA94CF0C13
:107F7000D11C0EC0853739F428D08EE10CD085E9AC
:107F80000AD08FE07ACF813511F488E018D01DD067
:107F900080E101D065CF982F8091C00085FFFCCF94
:107FA0009093C60008958091C00087FFFCCF809118
:107FB000C00084FD01C0A8958091C6000895E0E648
:107FC000F0E098E1908380830895EDDF803219F02E
:107FD00088E0F5DFFFCF84E1DECF1F93182FE3DFCA
:107FE0001150E9F7F2DF1F91089580E0E8DFEE27F6
:047FF000FF270994CA
:027FFE00040479
:0400000300007E007B
:00000001FF