:100000000C9462000C948A000C948A000C948A0070
:100010000C948A000C948A000C948A000C948A0038
:100020000C948A000C948A000C948A000C948A0028
:100030000C948A000C948A000C948A000C948A0018
:100040000C94E7030C948A000C94B5030C948F0372
:100050000C948A000C948A000C948A000C948A00F8
:100060000C9431040C948A00000000002300260048
:10007000290000000008000201000003040700003E
:1000800000000000000000000000250028002B00F8
:1000900000000000240027002A00040404040404D3
:1000A0000404020202020202030303030303010227
:1000B00004081020408001020408102001020408F6
:1000C00010205F0511241FBECFEFD8E0DEBFCDBFEB
:1000D00011E0A0E0B1E0E8E8F2E102C005900D9285
:1000E000AE33B107D9F722E0AEE3B1E001C01D9213
:1000F000A33BB207E1F710E0C2E6D0E004C02197CD
:10010000FE010E943709C136D107C9F70E94980540
:100110000C9442090C940000CF92DF92EF92FF9270
:100120000F931F93CF93DF936C017A018B01C0E093
:10013000D0E0CE15DF0589F0D8016D918D01D60193
:10014000ED91FC910190F081E02DC6010995892B7C
:1001500011F47E0102C02196ECCFC701DF91CF914F
:100160001F910F91FF90EF90DF90CF900895FC01C9
:10017000538D448D252F30E0842F90E0821B930B0C
:10018000541710F0CF96089501970895FC01918DB2
:10019000828D981761F0828DDF01A80FB11D5D96E9
:1001A0008C91928D9F5F9F73928F90E008958FEF57
:1001B0009FEF0895FC01918D828D981731F0828D0B
:1001C000E80FF11D858D90E008958FEF9FEF089562
:1001D000FC01918D228D892F90E0805C9F4F821BC6
:1001E00091098F73992708958AE092E00E94E800B0
:1001F00021E0892B09F420E0822F0895FC01848DF1
:10020000DF01A80FB11DA35ABF4F2C91848D90E040
:1002100001968F739927848FA689B7892C93A0891B
:10022000B1898C9180648C93938D848D981306C0D2
:100230000288F389E02D80818F7D80830895EF927D
:10024000FF920F931F93CF93DF93EC0181E0888F90
:100250009B8D8C8D981305C0E889F989808185FD77
:1002600024C0F62E0B8D10E00F5F1F4F0F73112768
:10027000E02E8C8DE8120CC00FB607FCFACFE8898F
:10028000F989808185FFF5CFCE010E94FE00F1CF74
:100290008B8DFE01E80FF11DE35AFF4FF0820B8FAB
:1002A000EA89FB898081806207C0EE89FF896083CB
:1002B000E889F98980818064808381E090E0DF9122
:1002C000CF911F910F91FF90EF900895CF93DF93FF
:1002D000EC01888D8823C9F0EA89FB89808185FD3E
:1002E00005C0A889B9898C9186FD0FC00FB607FC9F
:1002F000F5CF808185FFF2CFA889B9898C9185FFE0
:10030000EDCFCE010E94FE00E7CFDF91CF9108959F
:1003100080E090E0892B29F00E94F40081110C9478
:1003200000000895833081F028F4813099F0823004
:10033000A1F008958730A9F08830B9F08430D1F465
:10034000809180008F7D03C0809180008F778093A3
:100350008000089584B58F7702C084B58F7D84BDF9
:1003600008958091B0008F7703C08091B0008F7D99
:100370008093B0000895CF93DF93282F30E0F901E8
:10038000EE58FF4F8491F901E255FF4FD491F901E6
:10039000E656FF4FC491CC2391F081110E94920147
:1003A000EC2FF0E0EE0FFF1FE859FF4FA591B4913D
:1003B000EC91ED2381E090E021F480E002C080E048
:1003C00090E0DF91CF9108951F93CF93DF93282F73
:1003D00030E0F901EE58FF4F8491F901E255FF4FEB
:1003E000D491F901E656FF4FC491CC23C9F0162FE2
:1003F00081110E949201EC2FF0E0EE0FFF1FEA57EF
:10040000FF4FA591B4918FB7F894111105C09C913D
:10041000ED2FE095E92302C0EC91ED2BEC938FBF1B
:10042000DF91CF911F9108953FB7F8948091D1014A
:100430009091D201A091D301B091D40126B5A89B8F
:1004400005C02F3F19F00196A11DB11D3FBFBA2F66
:10045000A92F982F8827820F911DA11DB11DBC01C6
:10046000CD0142E0660F771F881F991F4A95D1F78B
:10047000089585ED8093BC008091BC0084FDFCCF85
:100480001092D701089540918301262F30E0240F68
:10049000311D21323105DCF42091D7012430C9F41B
:1004A000FC0180E090E0861758F43091830121919F
:1004B000DC01AF59BE4FA30FB11D2C930196F3CFB2
:1004C00080918301680F6093830180E0089581E04B
:1004D000089582E00895089581E090E03091DB0175
:1004E0002091DA01321710F480E090E09195819527
:1004F000910908958091DB019091DA01891730F418
:100500008F5F8093DB0180E090E008958FEF9FEF95
:1005100008958091DA0190E02091DB01821B91091E
:100520000895CF92DF92EF92FF920F931F93CF9394
:10053000DF937C01262F972F8A0180916001882309
:1005400091F0C62FD72F6E01C40ED51ECC15DD0538
:1005500071F06991D701ED91FC910190F081E02D4E
:10056000C7010995F3CF642F822F0E944302C8016F
:10057000DF91CF911F910F91FF90EF90DF90CF907F
:100580000895CF93DF931F92CDB7DEB76983209193
:1005900060012223D1F02091D801203240F021E0E7
:1005A00030E0FC013383228380E090E015C080912D
:1005B000D901E82FF0E0E05CFE4F998190838F5FD6
:1005C0008093D9018093D80105C061E0CE010196E6
:1005D0000E94430281E090E00F90DF91CF91089557
:1005E000089580E090E00895CF92DF92EF92FF921D
:1005F0001F93CF93DF93E0913F01F0E0E050FF4F76
:10060000108181E08093600110933E011092D90126
:100610001092D801C0EED1E08CE9E82EFF24FA94C4
:1006200094E6C92ED12CFE01888199818C399F4F87
:1006300014F4F982E882888199818536910514F055
:10064000D982C8822296608187EA92E00E94C10224
:1006500082E0C830D80739F78091D801813208F09C
:1006600046C09091D7019111FCCF92E09093D701B1
:1006700091E09093D6019FEF9093A8011092CA0148
:100680008093C901A0E4B1E029EA31E0F9019E2F8D
:10069000921B981718F49D919193F9CF1092CB016A
:1006A0008091CB01110F182B1093CB018091D501B4
:1006B000813061F41092D5018091CB018093BB0011
:1006C0008091BC0083FDF8CF85EC01C085EE80935E
:1006D000BC008091D7018230E1F38091A8018F3F67
:1006E00031F08091A801803211F08091A801109220
:1006F000D9011092D8011092600180913F0190E0E1
:1007000001968170992780933F01DF91CF911F91CE
:10071000FF90EF90DF90CF9008950E943D091F92C7
:100720000F920FB60F9211242F933F934F935F9325
:100730006F937F938F939F93AF93BF93EF93FF93A9
:100740008AE092E00E94FE00FF91EF91BF91AF918D
:100750009F918F917F916F915F914F913F912F91D9
:100760000F900FBE0F901F9018951F920F920FB60B
:100770000F9211242F938F939F93EF93FF93E09108
:100780001A02F0911B028081E0912002F091210277
:1007900082FD12C09081809123028F5F8F73209120
:1007A0002402821751F0E0912302F0E0E65FFD4F52
:1007B000958F8093230201C08081FF91EF919F91DB
:1007C0008F912F910F900FBE0F901F9018951F9231
:1007D0000F920FB60F9211242F933F938F939F93F5
:1007E000AF93BF938091CD019091CE01A091CF01A5
:1007F000B091D0013091CC0123E0230F2D3720F4AC
:100800000196A11DB11D05C026E8230F0296A11D6A
:10081000B11D2093CC018093CD019093CE01A09384
:10082000CF01B093D0018091D1019091D201A091DC
:10083000D301B091D4010196A11DB11D8093D101C6
:100840009093D201A093D301B093D401BF91AF9103
:100850009F918F913F912F910F900FBE0F901F90FE
:1008600018951F920F920FB60F9211242F933F935A
:100870004F935F936F937F938F939F93AF93BF93A8
:10088000EF93FF938091B900887F803609F49CC074
:1008900068F5883209F45BC090F4803109F454C0E3
:1008A00038F4882309F4F6C0883009F44DC0F6C046
:1008B000883109F44CC0803209F45DC0EFC0803447
:1008C00009F468C048F4803309F455C0883309F04E
:1008D000E5C08093A801D8C0803509F44FC08835A1
:1008E00009F45DC0883409F0D9C0D6C0883909F44C
:1008F000C7C0A8F4883709F467C038F4883609F40B
:1009000063C0803709F460C0C9C0883809F4B8C032
:10091000803909F45FC0803809F0C0C05BC0803BFB
:1009200009F486C038F4803A09F466C0883A09F4BC
:100930007FC0B4C0803C09F4A7C0883C09F4A4C0BF
:10094000883B09F48AC0AAC08091CB0110C0909165
:10095000CA018091C901981770F5E091CA0181E040
:100960008E0F8093CA01F0E0E755FE4F808180939F
:10097000BB0085EC86C08093A8018EC0E091CA01BF
:1009800081E08E0F8093CA018091BB00F0E0E755B3
:10099000FE4F80839091CA018091C9016EC0E091A1
:1009A000CA0181E08E0F8093CA018091BB00F0E004
:1009B000E755FE4F80838091D60181116DC081E0A3
:1009C0008093D50184EA61C083E08093D7011092BF
:1009D000A701CFCF8091A701803208F051C0E091EC
:1009E000A70181E08E0F8093A7018091BB00F0E00A
:1009F000E957FE4F8083BDCF85EC8093BC001092F9
:100A0000D7018091A701803230F4E091A701F0E096
:100A1000E957FE4F10826091A70170E0E0918501D7
:100A2000F091860187E891E009951092A70136C000
:100A300084E08093D7011092840110928301E091A9
:100A40008101F0918201099580918301811105C096
:100A500081E08093830110926101E091840181E043
:100A60008E0F80938401F0E0EF59FE4F80818093D8
:100A7000BB009091840180918301981708F479CF8D
:100A800085E88093BC000AC085EC8093BC0010927E
:100A9000D70104C01092A8010E943902FF91EF9182
:100AA000BF91AF919F918F917F916F915F914F9186
:100AB0003F912F910F900FBE0F901F901895EAE075
:100AC000F2E01382128288EE93E0A0E0B0E084832B
:100AD0009583A683B7832EE131E03183208325EC13
:100AE00030E03587248724EC30E03787268720ECF8
:100AF00030E0318B208B21EC30E0338B228B22ECE9
:100B000030E0358B248B26EC30E0378B268B118E32
:100B1000128E138E148EE7EAF2E01382128284831F
:100B20009583A683B78380E391E0918380830895C2
:100B3000789484B5826084BD84B5816084BD85B5B8
:100B4000826085BD85B5816085BD80916E008160C4
:100B500080936E001092810080918100826080936A
:100B6000810080918100816080938100809180006C
:100B70008160809380008091B10084608093B10097
:100B80008091B00081608093B00080917A00846091
:100B900080937A0080917A00826080937A008091BD
:100BA0007A00816080937A0080917A0080688093D7
:100BB0007A001092C100E6EBF0E02491E2EAF0E066
:100BC0008491882399F090E0880F991FFC01E057E9
:100BD000FF4FA591B491FC01EA57FF4F8591949185
:100BE0008FB7F894EC91E22BEC938FBF1092DB015E
:100BF0001092DA011092D9011092D8011092D70107
:100C0000C1E0C093D6011092D50161E082E10E945B
:100C1000E40161E083E10E94E4018091B9008E7FEC
:100C20008093B9008091B9008D7F8093B90088E4EA
:100C30008093B80085E48093BC008CE08093B8007A
:100C4000E0911A02F0911B0282E08083E09116028B
:100C5000F09117021082E0911802F091190287E6D4
:100C6000808310922202E0911E02F0911F0286E022
:100C70008083E0911C02F0911D028081806180835D
:100C8000E0911C02F0911D02808188608083E091D8
:100C90001C02F0911D02808180688083E0911C021B
:100CA000F0911D0280818F7D808310928000C0931F
:100CB000810010928200A2E0B1E08D919D91992770
:100CC000FC01E255FF4F2491FC01E656FF4F849151
:100CD0008823C9F090E0880F991FFC01E057FF4F6F
:100CE00045915491FC01EA57FF4FC591D4919FB7AC
:100CF000F894FA0180812095822380838881E22FF5
:100D0000E823E8839FBFF1E0AA32BF07B1F60E9453
:100D100014024B015C0158EEC52E53E0D52EE12C98
:100D2000F12C0E941402DC01CB0188199909AA094F
:100D3000BB09883E9340A105B10558F021E0C21AD5
:100D4000D108E108F10848EE840E43E0941EA11C8E
:100D5000B11CC114D104E104F10419F7CEEDD1E0C6
:100D600002E011E0E12CF12CE114F10429F489E016
:100D70000E94BB010197D9F3F801D0808D2D0E940C
:100D8000BB01892BC9F3E114F10421F461E088E08F
:100D90000E94E401109285001092840081E080930B
:100DA0008100E114F10409F469C0A0900802B09038
:100DB0000902B5010B2C000C880B990BFCEDAF164A
:100DC000F5E0BF066CF00E943E0820E030E040E80D
:100DD0005EE30E94CA0820E030E84BEB53E40CC00D
:100DE0000E943E0829E33EE843E65EE30E94CA080B
:100DF0002BEA3AEA46EA53E40E9499070E94060861
:100E00007983688328E0E216F104C1F52091DE01C0
:100E10003091DF0140EDA41647E0B4063CF02F5FAF
:100E20003F4F3093DF012093DE0124C02230310593
:100E3000E9F42091DC013091DD018091EE01909187
:100E4000EF01F901EE0FFF1FE850FE4F9183808301
:100E50002730310521F41092DF011092DE012F5F5F
:100E60003F4F3093DD012093DC0108C01092DF0179
:100E70001092DE011092DD011092DC010E94F4025A
:100E80008D2D0E94BB010197D9F3109281006091D2
:100E900084007091850080E090E00E943C0820E092
:100EA00030E040E85DE30E94CA080E9406089B010A
:100EB00070930902609308028FEFE81AF80A2296ED
:100EC0000E5F1F4FEBE0EE16F10409F04DCFB901B4
:100ED000032E000C880B990B2C3D35406CF00E94C2
:100EE0003E0820E030E040E85EE30E94CA0820E0CF
:100EF00030E84BEB53E40CC00E943E0829E33EE887
:100F000043E65EE30E94CA082BEA3AEA46EA53E463
:100F10000E9499070E9406087093F5016093F401FE
:100F20000E94F40260E088E00E94E4010E948801CF
:100F300015CF5058BB27AA270E94B1070C949008E0
:100F40000E94820838F00E94890820F039F49F3FFF
:100F500019F426F40C947F080EF4E095E7FB0C944A
:100F60007908E92F0E94A10858F3BA17620773079E
:100F70008407950720F079F4A6F50C94C3080EF4C5
:100F8000E0950B2EBA2FA02D0B01B90190010C0199
:100F9000CA01A0011124FF27591B99F0593F50F4B1
:100FA000503E68F11A16F040A22F232F342F442709
:100FB000585FF3CF469537952795A795F040539501
:100FC000C9F77EF41F16BA0B620B730B840BBAF0D1
:100FD0009150A1F0FF0FBB1F661F771F881FC2F73C
:100FE0000EC0BA0F621F731F841F48F48795779550
:100FF0006795B795F7959E3F08F0B0CF9395880F0A
:1010000008F09927EE0F9795879508950E940D088F
:101010006894B1110C94C40808950E94A90888F03E
:101020009F5798F0B92F9927B751B0F0E1F0660FAC
:10103000771F881F991F1AF0BA95C9F714C0B130ED
:1010400091F00E94C308B1E008950C94C308672F83
:10105000782F8827B85F39F0B93FCCF3869577951C
:101060006795B395D9F73EF4909580957095619505
:101070007F4F8F4F9F4F0895E89409C097FB3EF430
:1010800090958095709561957F4F8F4F9F4F9923D5
:10109000A9F0F92F96E9BB279395F6958795779553
:1010A0006795B795F111F8CFFAF4BB0F11F460FF13
:1010B0001BC06F5F7F4F8F4F9F4F16C0882311F06B
:1010C00096E911C0772321F09EE8872F762F05C07F
:1010D000662371F096E8862F70E060E02AF09A951A
:1010E000660F771F881FDAF7880F9695879597F90F
:1010F000089597F99F6780E870E060E008959FEF9A
:1011000080EC089500240A9416161706180609069E
:10111000089500240A94121613061406050608956D
:10112000092E0394000C11F4882352F0BB0F40F4F5
:10113000BF2B11F460FF04C06F5F7F4F8F4F9F4F35
:10114000089557FD9058440F551F59F05F3F71F0B7
:101150004795880F97FB991F61F09F3F79F087951E
:101160000895121613061406551FF2CF4695F1DFA7
:1011700008C0161617061806991FF1CF8695710537
:10118000610508940895E894BB2766277727CB016B
:1011900097F908950E94DD080C9490080E94820837
:1011A00038F00E94890820F0952311F00C947908FA
:1011B0000C947F0811240C94C4080E94A10870F3B9
:1011C000959FC1F3950F50E0551F629FF001729FEC
:1011D000BB27F00DB11D639FAA27F00DB11DAA1FFB
:1011E000649F6627B00DA11D661F829F2227B00D48
:1011F000A11D621F739FB00DA11D621F839FA00DD3
:10120000611D221F749F3327A00D611D231F849F22
:10121000600D211D822F762F6A2F11249F57504079
:101220009AF0F1F088234AF0EE0FFF1FBB1F661FF4
:10123000771F881F91505040A9F79E3F510580F0BD
:101240000C9479080C94C4085F3FE4F3983ED4F3FF
:10125000869577956795B795F795E7959F5FC1F761
:10126000FE2B880F911D9695879597F90895EE0F9F
:10127000FF1F0590F491E02D099481E090E0F8942F
:081280000C944209F894FFCF21
:10128800080909000A000B000C000D000600050003
:101298000E0004000F0010001100000000001F01E4
:1012A8008C00B7006601E800C600DA000000000004
:0E12B800C1029102F1026B0289027A026C02FD
:107E0000112484B714BE81FFF0D085E080938100F7
:107E100082E08093C00088E18093C10086E0809377
:107E2000C20080E18093C4008EE0C9D0259A86E02C
:107E300020E33CEF91E0309385002093840096BBD3
:107E4000B09BFECF1D9AA8958150A9F7CC24DD24C4
:107E500088248394B5E0AB2EA1E19A2EF3E0BF2EE7
:107E6000A2D0813461F49FD0082FAFD0023811F036
:107E7000013811F484E001C083E08DD089C08234E0
:107E800011F484E103C0853419F485E0A6D080C0E4
:107E9000853579F488D0E82EFF2485D0082F10E0AE
:107EA000102F00270E291F29000F111F8ED06801E7
:107EB0006FC0863521F484E090D080E0DECF843638
:107EC00009F040C070D06FD0082F6DD080E0C81688
:107ED00080E7D80618F4F601B7BEE895C0E0D1E017
:107EE00062D089930C17E1F7F0E0CF16F0E7DF06D8
:107EF00018F0F601B7BEE89568D007B600FCFDCFD4
:107F0000A601A0E0B1E02C9130E011968C91119780
:107F100090E0982F8827822B932B1296FA010C0160
:107F200087BEE89511244E5F5F4FF1E0A038BF0790
:107F300051F7F601A7BEE89507B600FCFDCF97BE46
:107F4000E89526C08437B1F42ED02DD0F82E2BD052
:107F50003CD0F601EF2C8F010F5F1F4F84911BD097
:107F6000EA94F801C1F70894C11CD11CFA94CF0C13
:107F7000D11C0EC0853739F428D08EE10CD085E9AC
:107F80000AD08FE07ACF813511F488E018D01DD067
:107F900080E101D065CF982F8091C00085FFFCCF94
:107FA0009093C60008958091C00087FFFCCF809118
:107FB000C00084FD01C0A8958091C6000895E0E648
:107FC000F0E098E1908380830895EDDF803219F02E
:107FD00088E0F5DFFFCF84E1DECF1F93182FE3DFCA
:107FE0001150E9F7F2DF1F91089580E0E8DFEE27F6
:047FF000FF270994CA
:027FFE00040479
:0400000300007E007B
:00000001FF