:100000000C945D000C9485000C9485000C94850084
:100010000C9485000C9485000C9485000C9485004C
:100020000C9485000C9485000C9485000C94E905D3
:100030000C9485000C9485000C9485000C9485002C
:100040000C949F050C9485000C946D050C94470549
:100050000C9485000C9485000C9485000C9485000C
:100060000C94AA060C948500000000080002010010
:100070000003040700000000000000000000000072
:10008000250028002B0000000000240027002A0083
:10009000040404040404040402020202020203032E
:1000A0000303030301020408102040800102040836
:1000B0001020010204081020D80711241FBECFEF22
:1000C000D8E0DEBFCDBF11E0A0E0B1E0E2E0FCE1AE
:1000D00002C005900D92A235B107D9F722E0A2E542
:1000E000B1E001C01D92A93EB207E1F710E0CDE5F5
:1000F000D0E004C02197FE010E94C70CCC35D10787
:10010000C9F70E9411080C94FF0D0C94000090E0B8
:10011000FC01EC55FF4F2491FC01E057FF4F849107
:10012000882399F090E0880F991FFC01EA57FF4F50
:10013000A591B491FC01E458FF4F859194918FB73C
:10014000F894EC91E22BEC938FBF0895CF92DF925D
:10015000EF92FF920F931F93CF93DF936C017A017D
:100160008B01C0E0D0E0CE15DF0589F0D8016D919C
:100170008D01D601ED91FC910190F081E02DC60139
:100180000995892B11F47E0102C02196ECCFC7019D
:10019000DF91CF911F910F91FF90EF90DF90CF9063
:1001A0000895E0917301F0917401309729F0109255
:1001B000EA011092E90109940895CF93DF93AC010D
:1001C000E091F101F091F2013097F1F09091EC01A2
:1001D0008091EB019817C0F090E0292F30E02617AE
:1001E000370754F4D901AD5ABE4FEA01C20FD31FED
:1001F00088818C939F5FF1CF1092EC016093EB01AB
:10020000CB01DF91CF910994DF91CF910895FC014B
:10021000538D448D252F30E0842F90E0821B930B6B
:10022000541710F0CF96089501970895FC01918D11
:10023000828D981761F0828DDF01A80FB11D5D9648
:100240008C91928D9F5F9F73928F90E008958FEFB6
:100250009FEF0895FC01918D828D981731F0828D6A
:10026000E80FF11D858D90E008958FEF9FEF0895C1
:10027000FC01918D228D892F90E0805C9F4F821B25
:1002800091098F73992708958CE392E00E943801B9
:1002900021E0892B09F420E0822F0895FC01848D50
:1002A000DF01A80FB11DA35ABF4F2C91848D90E0A0
:1002B00001968F739927848FA689B7892C93A0897B
:1002C000B1898C9180648C93938D848D981306C032
:1002D0000288F389E02D80818F7D80830895EF92DD
:1002E000FF920F931F93CF93DF93EC0181E0888FF0
:1002F0009B8D8C8D981305C0E889F989808185FDD7
:1003000024C0F62E0B8D10E00F5F1F4F0F731127C7
:10031000E02E8C8DE8120CC00FB607FCFACFE889EE
:10032000F989808185FFF5CFCE010E944E01F1CF82
:100330008B8DFE01E80FF11DE35AFF4FF0820B8F0A
:10034000EA89FB898081806207C0EE89FF8960832A
:10035000E889F98980818064808381E090E0DF9181
:10036000CF911F910F91FF90EF900895CF93DF935E
:10037000EC01888D8823C9F0EA89FB89808185FD9D
:1003800005C0A889B9898C9186FD0FC00FB607FCFE
:10039000F5CF808185FFF2CFA889B9898C9185FF3F
:1003A000EDCFCE010E944E01E7CFDF91CF910895AE
:1003B00080E090E0892B29F00E94440181110C9487
:1003C0000000089590E0FC01E859FF4F3491FC01D2
:1003D000EC55FF4F2491FC01E057FF4FE491EE23D1
:1003E00009F43BC0332339F1333091F038F4313024
:1003F000A9F0323001F584B58F7D12C0373091F00D
:100400003830A1F03430B9F4809180008F7D03C082
:10041000809180008F77809380000DC084B58F77A6
:1004200084BD09C08091B0008F7703C08091B00077
:100430008F7D8093B000F0E0EE0FFF1FE458FF4F78
:10044000A591B4918FB7F894EC91611103C02095F8
:100450002E2301C02E2B2C938FBF08951F93CF9373
:10046000DF93182FEB010E948700209711F460E0C2
:1004700004C0CF3FD10539F461E0812FDF91CF91E6
:100480001F910C94E201E12FF0E0E859FF4FE49155
:10049000E330F9F048F4E130B9F0E230A1F584B589
:1004A000806284BDC8BD34C0E730E9F0E83019F19E
:1004B000E43049F580918000806280938000D09381
:1004C0008B00C0938A0024C084B5806884BDC7BDFA
:1004D0001FC080918000806880938000D093890045
:1004E000C093880015C08091B00080688093B000F0
:1004F000C093B3000DC08091B00080628093B000C3
:10050000C093B40005C0C038D1050CF0B5CFAFCF53
:10051000DF91CF911F9108952FB7F8946091E20178
:100520007091E3018091E4019091E5012FBF08955E
:1005300085ED8093BC008091BC0084FDFCCF1092BF
:10054000E801089540919501262F30E0240F311DD8
:1005500021323105DCF42091E8012430C9F4FC019A
:1005600080E090E0861758F4309195012191DC01EC
:10057000AB58BE4FA30FB11D2C930196F3CF8091C2
:100580009501680F6093950180E0089581E00895DA
:1005900082E008950895E091EC018091EB01E81765
:1005A00030F4F0E0ED5AFE4F808190E008958FEF37
:1005B0009FEF08959091EC018091EB01981750F412
:1005C000E92FF0E0ED5AFE4F208130E09F5F9093DD
:1005D000EC0102C02FEF3FEFC90108958091EB01BC
:1005E00090E02091EC01821B91090895CF93DF9355
:1005F00000D0CDB7DEB7CB01642F49835A830E9468
:10060000A2024981842F5A81952F0F900F90DF917C
:10061000CF910895CF93DF931F92CDB7DEB7698353
:1006200061E0CE0101960E94A20281E090E00F906D
:10063000DF91CF910895089580E090E008950895A6
:100640000F931F93CF93DF93EC01888599856817EB
:10065000790784F18A859B85861797075CF10E944C
:100660008C02088919892A893B89DC01CB01801B0E
:10067000910BA20BB30B0C851D852E853F850817AA
:1006800019072A073B0798F461E08C899D89892B1B
:1006900009F060E0862F90E09D8B8C8B8B810E940F
:1006A000E2010E948C02688B798B8A8B9B8B81E0A4
:1006B0008A8309C06D81862F90E09D8B8C8B8B8106
:1006C0000E94E2011A828A81DF91CF911F910F91DE
:1006D0000895CF93DF93EC01862FEAE0F1E0F983F0
:1006E000E8831A826B837C835F834E832D830E9411
:1006F00087006D818B81DF91CF910C94E201089589
:10070000CF92DF92EF92FF92CF93DF93EC01CB84F5
:10071000DC84ED84FE84072E000C880B990B0E946C
:10072000C20BA70196010E941D0B2F8538894989AC
:100730005A890E944E0C9B01AC01C701B6010E9470
:100740001E0B6B877C878D879E870E948A0B9B017F
:10075000AC012C593F4F4F4F5F4FA4EBB0E00E94CC
:10076000D90A28EC30E040E050E00E94BA0AB90112
:10077000203282E038070CF03EC037FD06C0253B32
:1007800031052CF064EB70E002C060E070E0898518
:10079000A8E8B0E06D01C81AD10887FDD394D6014E
:1007A000AA0FBB1FAA0FBB1F6D01BB0FEE08FF08EE
:1007B0008A8528E532E0281B310987FD3395220F11
:1007C000331F220F331FC901330FAA0BBB0B9C0130
:1007D000AD012C193D094E095F09DB010E94E40AB5
:1007E00024EB30E040E050E00E94BA0AC20ED31E73
:1007F000E41EF51EB60188858C3080F5998548E8A1
:1008000050E0491B510997FD5395440F551F440F64
:10081000551F6417750784F09A8528E532E0291B77
:10082000310997FD3395220F331F220F331FAB0180
:10083000261737070CF4A90142505109440F551FE0
:100840002FB7F89490E0FC01EE0FFF1F8E0F9F1F53
:10085000FC01EC50FE4F528341832FBF81E0DF91BA
:10086000CF91FF90EF90DF90CF900895CF93DF93DB
:10087000EC018E819F8118161906DCF48B819C8116
:100880008330910559F09C01255031092230310502
:1008900028F0245031092330310558F42D812111DD
:1008A00003C060E070E002C06FEF70E00E942E02B3
:1008B00004C06D818B810E94E2011A82DF91CF9189
:1008C0000895CF93DF93EC016E817F812D81161601
:1008D0001706DCF48B819C818330910559F0AC01C3
:1008E000455051094230510528F0445051094330D8
:1008F000510558F4222331F02FEF30E0A901461BB7
:10090000570BBA010E942E0206C081E0622F6827B1
:100910008B810E94E20181E08A83DF91CF9108956B
:10092000CF93DF93EC013D852A818885998531112C
:100930001AC021110CC06817790774F18A859B854C
:10094000861797074CF1CE010E94610425C06817F5
:1009500079072CF08A859B8586179707ECF4CE01E2
:100960000E94360419C03C8531110DC06817790703
:100970009CF08A859B858617970774F081E08C87A9
:100980002111EDCFE0CF681779072CF08A859B8580
:10099000861797070CF41C868A81DF91CF91089502
:1009A0000895CF92DF92EF92FF920F931F93CF9310
:1009B000DF93EC018B0177FF03C0119501951109BD
:1009C00001151105B9F08E859F85801B910B069747
:1009D0008CF06D81FF24F3946F258B810E94E201DE
:1009E0000E948C02688B798B8A8B9B8B1F870E876A
:1009F000FA821AC00E948C02C888D988EA88FB88CB
:100A0000DC01CB018C199D09AE09BF09CA84DB84C6
:100A1000EC84FD84C816D906EA06FB0628F46D812D
:100A20008B810E94E2011A828E859F858017910733
:100A30003CF41F870E876D818B810E94E2011A8230
:100A40008A81DF91CF911F910F91FF90EF90DF90FE
:100A5000CF9008950895CF93DF93C6E2D2E09091AE
:100A6000EB018091EC01981769F089ED92E00E940A
:100A7000DA029E0126523240243131050CF488837B
:100A80002196EDCFDF91CF9108950E94FA0D1F922C
:100A90000F920FB60F9211242F933F934F935F93B2
:100AA0006F937F938F939F93AF93BF93EF93FF9336
:100AB0008CE392E00E944E01FF91EF91BF91AF91C4
:100AC0009F918F917F916F915F914F913F912F9166
:100AD0000F900FBE0F901F9018951F920F920FB698
:100AE0000F9211242F938F939F93EF93FF93E09195
:100AF0004C02F0914D028081E0915202F09153023C
:100B000082FD12C09081809155028F5F8F7320917A
:100B10005602821751F0E0915502F0E0E45CFD4F7F
:100B2000958F8093550201C08081FF91EF919F9135
:100B30008F912F910F900FBE0F901F9018951F92BD
:100B40000F920FB60F9211242F933F938F939F9381
:100B5000AF93BF938091E2019091E301A091E401F2
:100B6000B091E5013091E10123E0230F2D3720F40E
:100B70000196A11DB11D05C026E8230F0296A11DF7
:100B8000B11D2093E1018093E2019093E301A093D2
:100B9000E401B093E5018091DD019091DE01A09127
:100BA000DF01B091E0010196A11DB11D8093DD012F
:100BB0009093DE01A093DF01B093E001BF91AF916C
:100BC0009F918F913F912F910F900FBE0F901F908B
:100BD00018951F920F920FB60F9211242F933F93E7
:100BE0004F935F936F937F938F939F93AF93BF9335
:100BF000EF93FF938091DC0187FF05C01092850081
:100C0000109284001BC02091DC01022E000C330BDB
:100C10008091F30190E02817390784F48091DC017A
:100C2000082E000C990BFC01EE0FFF1F8E0F9F1F6B
:100C3000FC01EC50FE4F808186FD15C08091DC01E7
:100C40008F5F8093DC012091DC01022E000C330BBE
:100C50008091F30190E028173907C4F48091DC01FA
:100C60008C3064F113C08091DC01082E000C990BCC
:100C7000FC01EE0FFF1F8E0F9F1FFC01EC50FE4F7B
:100C8000808160E08F730E94E201D8CF8091840060
:100C900090918500049680349C4918F480E49CE986
:100CA00005C08091840090918500049690938900FE
:100CB000809388008FEF8093DC013BC020918400FB
:100CC000309185008091DC01082E000C990BFC010D
:100CD000EE0FFF1F8E0F9F1FFC01EC50FE4F818116
:100CE0009281820F931F9093890080938800809156
:100CF000DC01082E000C990BFC01EE0FFF1F8E0F7C
:100D00009F1FFC01EC50FE4F808186FF12C0809136
:100D1000DC01082E000C990BFC01EE0FFF1F8E0F5B
:100D20009F1FFC01EC50FE4F808161E08F730E9499
:100D3000E201FF91EF91BF91AF919F918F917F91D0
:100D40006F915F914F913F912F910F900FBE0F9038
:100D50001F9018951F920F920FB60F9211242F9388
:100D60003F934F935F936F937F938F939F93AF9333
:100D7000BF93EF93FF938091B900887F803609F489
:100D80009CC068F5883209F45BC090F4803109F4A6
:100D900054C038F4882309F4F6C0883009F44DC0F3
:100DA000F6C0883109F44CC0803209F45DC0EFC050
:100DB000803409F468C048F4803309F455C088339E
:100DC00009F0E5C08093B801D8C0803509F44FC060
:100DD000883509F45DC0883409F0D9C0D6C0883997
:100DE00009F4C7C0A8F4883709F467C038F4883616
:100DF00009F463C0803709F460C0C9C0883809F4B9
:100E0000B8C0803909F45FC0803809F0C0C05BC049
:100E1000803B09F486C038F4803A09F466C0883A09
:100E200009F47FC0B4C0803C09F4A7C0883C09F431
:100E3000A4C0883B09F48AC0AAC08091DB0110C01D
:100E40009091DA018091D901981770F5E091DA015B
:100E500081E08E0F8093DA01F0E0E754FE4F80814D
:100E60008093BB0085EC86C08093B8018EC0E09172
:100E7000DA0181E08E0F8093DA018091BB00F0E00F
:100E8000E754FE4F80839091DA018091D9016EC0C2
:100E9000E091DA0181E08E0F8093DA018091BB004E
:100EA000F0E0E754FE4F80838091E70181116DC02F
:100EB00081E08093E60184EA61C083E08093E801E9
:100EC0001092B701CFCF8091B701803208F051C0A6
:100ED000E091B70181E08E0F8093B7018091BB0054
:100EE000F0E0E956FE4F8083BDCF85EC8093BC00D7
:100EF0001092E8018091B701803230F4E091B7019F
:100F0000F0E0E956FE4F10826091B70170E0E09189
:100F1000ED01F091EE0187E991E009951092B7019A
:100F200036C084E08093E8011092960110929501FA
:100F3000E091EF01F091F001099580919501811107
:100F400005C081E08093950110927501E0919601B2
:100F500081E08E0F80939601F0E0EB58FE4F808188
:100F60008093BB009091960180919501981708F4A9
:100F700079CF85E88093BC000AC085EC8093BC00E3
:100F80001092E80104C01092B8010E949802FF91EB
:100F9000EF91BF91AF919F918F917F916F915F91F1
:100FA0004F913F912F910F900FBE0F901F9018956A
:100FB000ECE3F2E01382128288EE93E0A0E0B0E06E
:100FC00084839583A683B78322E331E03183208332
:100FD00025EC30E03587248724EC30E037872687FE
:100FE00020EC30E0318B208B21EC30E0338B228BF6
:100FF00022EC30E0358B248B26EC30E0378B268BCF
:10100000118E128E138E148EE9EDF2E0138212828D
:1010100084839583A683B78384E491E0918380835E
:101020000895789484B5826084BD84B5816084BD60
:1010300085B5826085BD85B5816085BD80916E0076
:10104000816080936E0010928100809181008260A7
:1010500080938100809181008160809381008091E4
:1010600080008160809380008091B10084608093D3
:10107000B1008091B00081608093B00080917A00CF
:10108000846080937A0080917A00826080937A00F5
:1010900080917A00816080937A0080917A008068E4
:1010A00080937A001092C10082E18093BA0081EDB2
:1010B00090E09093F0018093EF018DED90E090939C
:1010C000EE018093ED011092EC011092EB01109271
:1010D000EA011092E9011092E80111E01093E70192
:1010E0001092E60161E082E10E94E20161E083E1A9
:1010F0000E94E2018091B9008E7F8093B9008091B7
:10110000B9008D7F8093B90088E48093B80085E4AE
:101110008093BC008BE295E09093F2018093F10103
:101120008EE090E00E94CD0CEC0120E04FEF50E00B
:1011300064E070E00E9469038AE291E09983888309
:101140008CE99FEF998788878EEC9FEF9B878A8732
:101150001C861D87D0932502C093240283E190E072
:101160000E94CD0CEC0120E040E050E069E070E02E
:101170000E94690382E191E0998388838091F30161
:101180008C3098F491E0980F9093F301888790E069
:10119000FC01EE0FFF1F8E0F9F1FFC01EC50FE4F56
:1011A00088EB9BE09283818302C08FEF88878091D8
:1011B000F3018C3088F491E0980F9093F30190E064
:1011C000FC01EE0FFF1F8E0F9F1FFC01EC50FE4F26
:1011D00088EB9BE09283818388858C3008F04CC03B
:1011E00089E00E9487008885E82FF0E09F01220FA8
:1011F000331FE20FF31FEC50FE4F9081907C9960FB
:10120000908319861A866CE00E94BB0C9CE0899F33
:10121000B001112440E050E09A01260F371FF90178
:10122000EE0FFF1F2E0F3F1FF901EC50FE4F908174
:1012300096FD16C04F5F5F4F4C30510569F7811125
:101240000FC01092800082E0809381001092850090
:1012500010928400B19A80916F00826080936F0039
:10126000E885F0E0CF01880F991FE80FF91FEC50D7
:10127000FE4F80818064808380E090E0A0E0BFE347
:101280008F87988BA98BBA8BD0933B02C0933A027D
:1012900084E190E00E94CD0CEC0120E04FEF50E0A3
:1012A0006BE070E00E9469038AE191E09983888392
:1012B00088EE93E0A0E0B0E08A879B87AC87BD878B
:1012C000D0932302C093220286E190E00E94CD0CCD
:1012D000EC0120E04FEF50E061E170E00E94690313
:1012E00002E211E01983088382E3E82EF12CF986EB
:1012F000E88694E6892E912C9B868A8624EF422EDE
:1013000055245394612C712C4C865D866E867F86A5
:10131000AA24A394B12CBD8AAC8AD0932102C09395
:10132000200286E190E00E94CD0CEC0120E04FEF1E
:1013300050E060E170E00E946903198308830CE9C2
:101340001FEF198708874EECC42EDD24DA94DB8664
:10135000CA864C865D866E867F86BD8AAC8AD093AF
:101360001F02C0931E028EE090E00E94CD0CEC01A3
:1013700020E04FEF50E06FE070E00E9469035AE216
:10138000A52E51E0B52EB982A882198708878CEE68
:101390009FEF9B878A871C861D86D0931D02C09372
:1013A0001C028EE090E00E94CD0CEC0120E04FEF9B
:1013B00050E06EE070E00E946903B982A88219874C
:1013C0000887DB86CA861C8611E01D87D0931B0226
:1013D000C0931A028EE090E00E94CD0CEC0120E058
:1013E0004FEF50E067E070E00E946903B982A88285
:1013F000F986E8869B868A861C861D87D09319020B
:10140000C0931802E0914C02F0914D0282E080837B
:10141000E0914802F09149021082E0914A02F09175
:101420004B028FEC808310925402E0915002F091B5
:10143000510286E08083E0914E02F0914F0280815C
:1014400080618083E0914E02F0914F02808188603C
:101450008083E0914E02F0914F028081806880830A
:10146000E0914E02F0914F0280818F7D80838091C8
:101470003A0290913B02DC01ED91FC9160913702C0
:10148000062E000C770B0280F381E02D09958091E8
:10149000240290912502DC01ED91FC9160913202D1
:1014A000062E000C770B0280F381E02D09958091C8
:1014B000220290912302DC01ED91FC9160912602C1
:1014C000062E000C770B0280F381E02D09958091A8
:1014D000200290912102DC01ED91FC9160912902A2
:1014E000062E000C770B0280F381E02D0995809188
:1014F0001E0290911F02DC01ED91FC916091290286
:10150000062E000C770B0280F381E02D0995809167
:101510001C0290911D02DC01ED91FC91609126026C
:10152000062E000C770B0280F381E02D0995809147
:101530001A0290911B02DC01ED91FC916091360240
:10154000062E000C770B0280F381E02D0995809127
:10155000180290911902DC01ED91FC916091360224
:10156000062E000C770B0280F381E02D09950E9476
:10157000D8017DCF052E97FB1EF400940E94D10A5E
:1015800057FD07D00E94EC0A07FC03D04EF40C94E0
:10159000D10A50954095309521953F4F4F4F5F4F61
:1015A000089590958095709561957F4F8F4F9F4FCF
:1015B00008950E940E0BA59F900DB49F900DA49FBF
:1015C000800D911D11240895B7FF0C94D90A0E9433
:1015D000D90A821B930B0895A1E21A2EAA1BBB1BEA
:1015E000FD010DC0AA1FBB1FEE1FFF1FA217B307EF
:1015F000E407F50720F0A21BB30BE40BF50B661F05
:10160000771F881F991F1A9469F7609570958095C8
:1016100090959B01AC01BD01CF010895A29FB0013F
:10162000B39FC001A39F700D811D1124911DB29F16
:10163000700D811D1124911D08955058BB27AA27B4
:101640000E94350B0C94140C0E94060C38F00E947A
:101650000D0C20F039F49F3F19F426F40C94030C80
:101660000EF4E095E7FB0C94FD0BE92F0E94250C8E
:1016700058F3BA17620773078407950720F079F4C7
:10168000A6F50C94470C0EF4E0950B2EBA2FA02D66
:101690000B01B90190010C01CA01A0011124FF271F
:1016A000591B99F0593F50F4503E68F11A16F0401A
:1016B000A22F232F342F4427585FF3CF4695379519
:1016C0002795A795F0405395C9F77EF41F16BA0BDE
:1016D000620B730B840BBAF09150A1F0FF0FBB1F8C
:1016E000661F771F881FC2F70EC0BA0F621F731FD5
:1016F000841F48F4879577956795B795F7959E3F32
:1017000008F0B0CF9395880F08F09927EE0F9795C2
:10171000879508950E94910B6894B1110C94480C20
:1017200008950E942D0C88F09F5798F0B92F9927A3
:10173000B751B0F0E1F0660F771F881F991F1AF0BC
:10174000BA95C9F714C0B13091F00E94470CB1E0CE
:1017500008950C94470C672F782F8827B85F39F0CD
:10176000B93FCCF3869577956795B395D9F73EF455
:1017700090958095709561957F4F8F4F9F4F0895FD
:10178000E89409C097FB3EF490958095709561951B
:101790007F4F8F4F9F4F9923A9F0F92F96E9BB27D1
:1017A0009395F695879577956795B795F111F8CF4D
:1017B000FAF4BB0F11F460FF1BC06F5F7F4F8F4FB8
:1017C0009F4F16C0882311F096E911C0772321F0AE
:1017D0009EE8872F762F05C0662371F096E8862F46
:1017E00070E060E02AF09A95660F771F881FDAF79D
:1017F000880F9695879597F9089597F99F6780E8E0
:1018000070E060E008959FEF80EC089500240A9452
:101810001616170618060906089500240A941216CB
:101820001306140605060895092E0394000C11F4FE
:10183000882352F0BB0F40F4BF2B11F460FF04C0AB
:101840006F5F7F4F8F4F9F4F089557FD9058440F04
:10185000551F59F05F3F71F04795880F97FB991F0F
:1018600061F09F3F79F087950895121613061406CC
:10187000551FF2CF4695F1DF08C016161706180659
:10188000991FF1CF86957105610508940895E89434
:10189000BB2766277727CB0197F908950E94610C33
:1018A0000C94140C0E94060C38F00E940D0C20F0D1
:1018B000952311F00C94FD0B0C94030C11240C9443
:1018C000480C0E94250C70F3959FC1F3950F50E0D2
:1018D000551F629FF001729FBB27F00DB11D639FE2
:1018E000AA27F00DB11DAA1F649F6627B00DA11D88
:1018F000661F829F2227B00DA11D621F739FB00D2E
:10190000A11D621F839FA00D611D221F749F33279D
:10191000A00D611D231F849F600D211D822F762F36
:101920006A2F11249F5750409AF0F1F088234AF013
:10193000EE0FFF1FBB1F661F771F881F915050407F
:10194000A9F79E3F510580F00C94FD0B0C94480CB8
:101950005F3FE4F3983ED4F3869577956795B79506
:10196000F795E7959F5FC1F7FE2B880F911D969520
:10197000879597F90895991B79E004C0991F9617E8
:1019800008F0961B881F7A95C9F780950895EE0F89
:10199000FF1F0590F491E02D0994CF93DF938230DF
:1019A000910510F482E090E0E091E702F091E80206
:1019B00020E030E0C0E0D0E0309711F1408151816B
:1019C00048175907C0F04817590761F4828193817D
:1019D000209719F09B838A832BC09093E802809311
:1019E000E70226C02115310519F04217530718F4F4
:1019F0009A01BE01DF01EF010280F381E02DDCCF0F
:101A00002115310509F1281B390B2430310590F4DB
:101A100012968D919C9113976115710521F0FB0130
:101A20009383828304C09093E8028093E702FD01D0
:101A3000329644C0FD01E20FF31F8193919322502F
:101A400031092D933C933AC02091E5023091E60292
:101A5000232B41F420910201309103013093E602DF
:101A60002093E502209100013091010121153105FB
:101A700041F42DB73EB74091040150910501241B5C
:101A8000350BE091E502F091E602E217F307A0F4CE
:101A90002E1B3F0B2817390778F0AC014E5F5F4FC4
:101AA0002417350748F04E0F5F1F5093E60240930E
:101AB000E5028193919302C0E0E0F0E0CF01DF9175
:101AC000CF9108950F931F93CF93DF93009709F45D
:101AD0008CC0FC013297138212820091E7021091B0
:101AE000E8020115110581F420813181820F931FD5
:101AF0002091E5023091E6022817390779F5F09335
:101B0000E602E093E50271C0D80140E050E0AE1774
:101B1000BF0750F412962D913C911397AD012115FA
:101B2000310509F1D901F3CF9D01DA013383228315
:101B300060817181860F971F8217930769F4EC010A
:101B400028813981260F371F2E5F3F4F3183208335
:101B50008A819B8193838283452B29F4F093E80249
:101B6000E093E70242C01396FC93EE931297ED01C7
:101B7000499159919E01240F351FE217F30771F423
:101B800080819181840F951F029611969C938E936C
:101B90008281938113969C938E931297E0E0F0E0FC
:101BA000D80112968D919C911397009719F0F80126
:101BB0008C01F6CF8D919C9198012E5F3F4F820F43
:101BC000931F2091E5023091E6022817390769F446
:101BD000309729F41092E8021092E70202C01382B3
:101BE00012821093E6020093E502DF91CF911F91DC
:101BF0000F91089581E090E0F8940C94FF0DF89413
:021C0000FFCF14
:101C02000000E902800000000000450545050000D3
:101C120000007F038003000000002A05D1040000B9
:101C220000001F03200300000000D0049004000005
:101C320000006F01A6000701B601380116012A0152
:101C4200000000000A03F6021C03CA02EE02DA02D6
:021C5200CB02C3
:107E0000112484B714BE81FFF0D085E080938100F7
:107E100082E08093C00088E18093C10086E0809377
:107E2000C20080E18093C4008EE0C9D0259A86E02C
:107E300020E33CEF91E0309385002093840096BBD3
:107E4000B09BFECF1D9AA8958150A9F7CC24DD24C4
:107E500088248394B5E0AB2EA1E19A2EF3E0BF2EE7
:107E6000A2D0813461F49FD0082FAFD0023811F036
:107E7000013811F484E001C083E08DD089C08234E0
:107E800011F484E103C0853419F485E0A6D080C0E4
:107E9000853579F488D0E82EFF2485D0082F10E0AE
:107EA000102F00270E291F29000F111F8ED06801E7
:107EB0006FC0863521F484E090D080E0DECF843638
:107EC00009F040C070D06FD0082F6DD080E0C81688
:107ED00080E7D80618F4F601B7BEE895C0E0D1E017
:107EE00062D089930C17E1F7F0E0CF16F0E7DF06D8
:107EF00018F0F601B7BEE89568D007B600FCFDCFD4
:107F0000A601A0E0B1E02C9130E011968C91119780
:107F100090E0982F8827822B932B1296FA010C0160
:107F200087BEE89511244E5F5F4FF1E0A038BF0790
:107F300051F7F601A7BEE89507B600FCFDCF97BE46
:107F4000E89526C08437B1F42ED02DD0F82E2BD052
:107F50003CD0F601EF2C8F010F5F1F4F84911BD097
:107F6000EA94F801C1F70894C11CD11CFA94CF0C13
:107F7000D11C0EC0853739F428D08EE10CD085E9AC
:107F80000AD08FE07ACF813511F488E018D01DD067
:107F900080E101D065CF982F8091C00085FFFCCF94
:107FA0009093C60008958091C00087FFFCCF809118
:107FB000C00084FD01C0A8958091C6000895E0E648
:107FC000F0E098E1908380830895EDDF803219F02E
:107FD00088E0F5DFFFCF84E1DECF1F93182FE3DFCA
:107FE0001150E9F7F2DF1F91089580E0E8DFEE27F6
:047FF000FF270994CA
:027FFE00040479
:0400000300007E007B
:00000001FF