:100000000C945D000C9485000C9485000C94850084
:100010000C9485000C9485000C9485000C9485004C
:100020000C9485000C9485000C9485000C94D205EA
:100030000C9485000C9485000C9485000C9485002C
:100040000C945D040C9485000C942B040C94050412
:100050000C9485000C9485000C9485000C9485000C
:100060000C94A7040C948500000000080002010015
:100070000003040700000000000000000000000072
:10008000250028002B0000000000240027002A0083
:10009000040404040404040402020202020203032E
:1000A0000303030301020408102040800102040836
:1000B0001020010204081020360611241FBECFEFC5
:1000C000D8E0DEBFCDBF11E0A0E0B1E0E4EAF5E1A9
:1000D00002C005900D92AE33B107D9F722E0AEE32E
:1000E000B1E001C01D92A03EB207E1F710E0CDE5FE
:1000F000D0E004C02197FE010E949809CC35D107B9
:10010000C9F70E946F060C94D00A0C94000090E08E
:10011000FC01EC55FF4F2491FC01E057FF4F849107
:10012000882399F090E0880F991FFC01EA57FF4F50
:10013000A591B491FC01E458FF4F859194918FB73C
:10014000F894EC91E22BEC938FBF0895CF92DF925D
:10015000EF92FF920F931F93CF93DF936C017A017D
:100160008B01C0E0D0E0CE15DF0589F0D8016D919C
:100170008D01D601ED91FC910190F081E02DC60139
:100180000995892B11F47E0102C02196ECCFC7019D
:10019000DF91CF911F910F91FF90EF90DF90CF9063
:1001A0000895E0918401F0918501309729F0109233
:1001B000FA011092F90109940895CF93DF93AC01ED
:1001C000E0910102F09102023097F1F09091FC0170
:1001D0008091FB019817C0F090E0292F30E026179E
:1001E000370754F4D901AC59BE4FEA01C20FD31FEF
:1001F00088818C939F5FF1CF1092FC016093FB018B
:10020000CB01DF91CF910994DF91CF910895FC014B
:10021000538D448D252F30E0842F90E0821B930B6B
:10022000541710F0CF96089501970895FC01918D11
:10023000828D981761F0828DDF01A80FB11D5D9648
:100240008C91928D9F5F9F73928F90E008958FEFB6
:100250009FEF0895FC01918D828D981731F0828D6A
:10026000E80FF11D858D90E008958FEF9FEF0895C1
:10027000FC01918D228D892F90E0805C9F4F821B25
:1002800091098F739927089583E392E00E943801C2
:1002900021E0892B09F420E0822F0895FC01848D50
:1002A000DF01A80FB11DA35ABF4F2C91848D90E0A0
:1002B00001968F739927848FA689B7892C93A0897B
:1002C000B1898C9180648C93938D848D981306C032
:1002D0000288F389E02D80818F7D80830895EF92DD
:1002E000FF920F931F93CF93DF93EC0181E0888FF0
:1002F0009B8D8C8D981305C0E889F989808185FDD7
:1003000024C0F62E0B8D10E00F5F1F4F0F731127C7
:10031000E02E8C8DE8120CC00FB607FCFACFE889EE
:10032000F989808185FFF5CFCE010E944E01F1CF82
:100330008B8DFE01E80FF11DE35AFF4FF0820B8F0A
:10034000EA89FB898081806207C0EE89FF8960832A
:10035000E889F98980818064808381E090E0DF9181
:10036000CF911F910F91FF90EF900895CF93DF935E
:10037000EC01888D8823C9F0EA89FB89808185FD9D
:1003800005C0A889B9898C9186FD0FC00FB607FCFE
:10039000F5CF808185FFF2CFA889B9898C9185FF3F
:1003A000EDCFCE010E944E01E7CFDF91CF910895AE
:1003B00080E090E0892B29F00E94440181110C9487
:1003C0000000089590E0FC01E859FF4F3491FC01D2
:1003D000EC55FF4F2491FC01E057FF4FE491EE23D1
:1003E00009F43BC0332339F1333091F038F4313024
:1003F000A9F0323001F584B58F7D12C0373091F00D
:100400003830A1F03430B9F4809180008F7D03C082
:10041000809180008F77809380000DC084B58F77A6
:1004200084BD09C08091B0008F7703C08091B00077
:100430008F7D8093B000F0E0EE0FFF1FE458FF4F78
:10044000A591B4918FB7F894EC91611103C02095F8
:100450002E2301C02E2B2C938FBF08951F93CF9373
:10046000DF93182FEB010E948700209711F460E0C2
:1004700004C0CF3FD10539F461E0812FDF91CF91E6
:100480001F910C94E201E12FF0E0E859FF4FE49155
:10049000E330F9F048F4E130B9F0E230A1F584B589
:1004A000806284BDC8BD34C0E730E9F0E83019F19E
:1004B000E43049F580918000806280938000D09381
:1004C0008B00C0938A0024C084B5806884BDC7BDFA
:1004D0001FC080918000806880938000D093890045
:1004E000C093880015C08091B00080688093B000F0
:1004F000C093B3000DC08091B00080628093B000C3
:10050000C093B40005C0C038D1050CF0B5CFAFCF53
:10051000DF91CF911F91089585ED8093BC0080916C
:10052000BC0084FDFCCF1092F80108950895E0917D
:10053000FC018091FB01E81730F4F0E0EC59FE4F2C
:10054000808190E008958FEF9FEF08959091FC01D6
:100550008091FB01981750F4E92FF0E0EC59FE4F21
:10056000208130E09F5F9093FC0102C02FEF3FEFAE
:10057000C90108958091FB0190E02091FC01821B4C
:1005800091090895CA01413288F42091F80124307C
:1005900069F44093A601FB0146E851E0DA012A2FF5
:1005A000241B281718F421912D93F9CF08958091D9
:1005B000F801843029F481E08093A60160938601DC
:1005C00081E090E00895089580E090E00895CF9351
:1005D000DF93EC01862FEAE0F1E0F983E8831A82E9
:1005E0006B837C835F834E832D830E9487006D81A4
:1005F0008B81DF91CF910C94E201CF93DF93EC01DB
:100600008E819F8118161906DCF48B819C818330C2
:10061000910559F09C01255031092230310528F00F
:10062000245031092330310558F42D81211103C0A4
:1006300060E070E002C06FEF70E00E942E0204C024
:100640006D818B810E94E2011A82DF91CF91089522
:10065000CF93DF93EC016E817F812D8116161706F3
:10066000DCF48B819C818330910559F0AC014550BD
:1006700051094230510528F0445051094330510589
:1006800058F4222331F02FEF30E0A901461B570B1D
:10069000BA010E942E0206C081E0622F68278B817A
:1006A0000E94E20181E08A83DF91CF910895CF9388
:1006B000DF93EC013D852A818885998531111AC027
:1006C00021110CC06817790774F18A859B858617FC
:1006D00097074CF1CE010E94280325C068177907BF
:1006E0002CF08A859B8586179707ECF4CE010E9433
:1006F000FD0219C03C8531110DC0681779079CF0C7
:100700008A859B858617970774F081E08C87211175
:10071000EDCFE0CF681779072CF08A859B85861787
:1007200097070CF41C868A81DF91CF910895089574
:10073000CF93DF93CDE1D2E09091FB018091FC015A
:10074000981769F080ED92E00E94A6029E012D515B
:100750003240243131050CF488832196EDCFDF91AE
:10076000CF9108958F929F92AF92BF920F931F9354
:10077000CF93DF93CDB7DEB7A1970FB6F894DEBF66
:100780000FBECDBF19A2423008F44AE08E010F5DC2
:100790001F4F842E912CA12CB12CA50194010E94F5
:1007A0007609E62FB901CA0101501109EA3014F4A3
:1007B000E05D01C0E95CD801EC93232B242B252BB1
:1007C00061F70115110571F0F80101900020E9F7BA
:1007D0003197AF01401B510BB80183E392E00E94B7
:1007E000A60002C080E090E0A1960FB6F894DEBFAC
:1007F0000FBECDBFDF91CF911F910F91BF90AF90F2
:100800009F908F9008950E94CB0A1F920F920FB66F
:100810000F9211242F933F934F935F936F937F9386
:100820008F939F93AF93BF93EF93FF9383E392E0F4
:100830000E944E01FF91EF91BF91AF919F918F91D7
:100840007F916F915F914F913F912F910F900FBECC
:100850000F901F9018951F920F920FB60F921124B0
:100860002F938F939F93EF93FF93E0914302F09127
:1008700044028081E0914902F0914A0282FD12C057
:10088000908180914C028F5F8F7320914D0282176F
:1008900051F0E0914C02F0E0ED5CFD4F958F8093BC
:1008A0004C0201C08081FF91EF919F918F912F9118
:1008B0000F900FBE0F901F9018951F920F920FB6BA
:1008C0000F9211242F933F938F939F93AF93BF93D6
:1008D0008091F2019091F301A091F401B091F501A2
:1008E0003091F10123E0230F2D3720F40196A11D53
:1008F000B11D05C026E8230F0296A11DB11D20934E
:10090000F1018093F2019093F301A093F401B0936D
:10091000F5018091ED019091EE01A091EF01B09170
:10092000F0010196A11DB11D8093ED019093EE01A0
:10093000A093EF01B093F001BF91AF919F918F9180
:100940003F912F910F900FBE0F901F9018951F92FF
:100950000F920FB60F9211242F933F934F935F93F3
:100960006F937F938F939F93AF93BF93EF93FF9377
:100970008091B900887F803609F49CC068F5883280
:1009800009F45BC090F4803109F454C038F4882332
:1009900009F4F3C0883009F44DC0F3C0883109F47C
:1009A0004CC0803209F45DC0ECC0803409F468C0EA
:1009B00048F4803309F455C0883309F0E2C08093CD
:1009C000C901D5C0803509F44FC0883509F45DC030
:1009D000883409F0D6C0D3C0883909F4C4C0A8F45B
:1009E000883709F467C038F4883609F463C0803763
:1009F00009F460C0C6C0883809F4B5C0803909F46C
:100A00005FC0803809F0BDC05BC0803B09F483C083
:100A100038F4803A09F466C0883A09F47CC0B1C061
:100A2000803C09F4A4C0883C09F4A1C0883B09F4C7
:100A300087C0A7C08091EC0110C09091EB0180911C
:100A4000EA01981770F5E091EB0181E08E0F809339
:100A5000EB01F0E0E653FE4F80818093BB0085EC14
:100A600083C08093C9018BC0E091EB0181E08E0FC0
:100A70008093EB018091BB00F0E0E653FE4F808352
:100A80009091EB018091EA016BC0E091EB0181E074
:100A90008E0F8093EB018091BB00F0E0E653FE4F98
:100AA00080838091F70181116AC081E08093F60113
:100AB00084EA5EC083E08093F8011092C801CFCF32
:100AC0008091C801803208F04EC0E091C80181E0F9
:100AD0008E0F8093C8018091BB00F0E0E855FE4F77
:100AE0008083BDCF8091C801803230F4E091C8018D
:100AF000F0E0E855FE4F10820E948C026091C80120
:100B000070E0E091FD01F091FE0188EA91E0099525
:100B10001092C8012CC084E08093F8011092A701C4
:100B20001092A601E091FF01F091000209958091D9
:100B3000A601811105C081E08093A6011092860173
:100B4000E091A70181E08E0F8093A701F0E0EA57C2
:100B5000FE4F80818093BB009091A7018091A601F8
:100B6000981708F47CCF85E88093BC000AC085EC18
:100B70008093BC001092F80104C01092C9010E9439
:100B80008C02FF91EF91BF91AF919F918F917F91D7
:100B90006F915F914F913F912F910F900FBE0F90EA
:100BA0001F9018951F920F920FB60F9211242F933A
:100BB0003F938F939F93EF93FF938091630187FF00
:100BC00005C0109285001092840005C080916301D9
:100BD00087FD80916301809163018F5F8093630142
:100BE0008091630187FF20C0809163018C30E4F421
:100BF000209184003091850080916301082E000CC3
:100C0000990BFC01EE0FFF1F8E0F9F1FFC01E15C93
:100C1000FE4F81819281820F931F90938900809370
:100C200088008091630117C08091840090918500B5
:100C3000049680349C4918F480E49CE905C08091B6
:100C40008400909185000496909389008093880099
:100C50008FEF80936301FF91EF919F918F913F916F
:100C60002F910F900FBE0F901F901895E3E3F2E0C5
:100C70001382128288EE93E0A0E0B0E08483958333
:100C8000A683B7832AE131E03183208325EC30E06D
:100C90003587248724EC30E03787268720EC30E046
:100CA000318B208B21EC30E0338B228B22EC30E037
:100CB000358B248B26EC30E0378B268B118E128EF1
:100CC000138E148EE0EDF2E01382128284839583FA
:100CD000A683B7838CE291E0918380830895789412
:100CE00084B5826084BD84B5816084BD85B5826031
:100CF00085BD85B5816085BD80916E0081608093E2
:100D00006E0010928100809181008260809381004A
:100D1000809181008160809381008091800081605A
:100D2000809380008091B10084608093B1008091B5
:100D3000B00081608093B00080917A0084608093DD
:100D40007A0080917A00826080937A0080917A00A4
:100D5000816080937A0080917A00806880937A0025
:100D60001092C10086E18093BA0081ED90E09093EB
:100D700000028093FF018DED90E09093FE0180933F
:100D8000FD011092FC011092FB011092FA011092E9
:100D9000F9011092F801C1E0C093F7011092F60139
:100DA00061E082E10E94E20161E083E10E94E201F0
:100DB0008091B9008E7F8093B9008091B9008D7FBA
:100DC0008093B90088E48093B80085E48093BC00E8
:100DD00088E993E090930202809301028EE090E014
:100DE0000E949E097C0121E04FEF50E063E070E03B
:100DF0000E94E70202E111E0D70111961C930E93C5
:100E00008CE9882E99249A9419969C928E92189720
:100E10009EECA92EBB24BA941B96BC92AE921A9754
:100E20001C961C921C971D96CC93F0923202E09275
:100E300031028EE090E00E949E093C0121E04FEFDC
:100E400050E064E070E00E94E702F3011183008348
:100E500022E3C22ED12CD186C08634E6E32EF12CBB
:100E6000F386E2861486C58770921C0260921B028C
:100E70008EE090E00E949E093C0121E040E050E0BD
:100E800065E070E00E94E702D30111961C930E9377
:100E900019969C928E9218971B96BC92AE921A97B6
:100EA0001C961C921C971D96CC9370921A0260920D
:100EB00019028EE090E00E949E093C0121E040E092
:100EC00050E066E070E00E94E702F30111830083C6
:100ED000D186C086F386E2861486C5877092180292
:100EE000609217028EE090E00E949E093C0121E092
:100EF00040E050E068E070E00E94E702D301119604
:100F00001C930E9319969C928E9218971B96BC92E6
:100F1000AE921A971C961C921C971D96CC937092B9
:100F20001602609215028EE090E00E949E093C013C
:100F300021E040E050E069E070E00E94E702F30148
:100F400011830083D186C086F386E2861486C58726
:100F500070921402609213028EE090E00E949E094B
:100F60003C0121E040E050E06AE070E00E94E702CE
:100F7000D30111961C930E9319969C928E921897FA
:100F80001B96BC92AE921A971C961C921C971D96AB
:100F9000CC9370921202609211028EE090E00E9457
:100FA0009E095C0121E044E150E06BE070E00E94AA
:100FB000E702F50111830083D186C086F386E286BD
:100FC0001486C587B0921002A0920F028EE090E0C6
:100FD0000E949E095C0121E044E150E06CE070E079
:100FE0000E94E702D50111961C930E931996DC928C
:100FF000CE9218971B96FC92EE921A971C961C9212
:101000001C971D96CC93B0920E02A0920D028EE01A
:1010100090E00E949E095C0121E044E150E06DE017
:1010200070E00E94E702F50111830083D186C0863B
:10103000F386E2861486C587B0920C02A0920B025A
:101040008EE090E00E949E095C0121E044E150E0C6
:101050006EE070E00E94E702D50111961C930E939A
:101060001996DC92CE9218971B96FC92EE921A97E4
:101070001C961C921C971D96CC93B0920A02A092CB
:1010800009028EE090E00E949E095C0121E044E1AB
:1010900050E06FE070E00E94E702F50111830083E9
:1010A000D186C086F386E2861486C587B092080290
:1010B000A09207028EE090E00E949E095C0121E070
:1010C00044E150E060E170E00E94E702D501119632
:1010D0001C930E931996DC92CE9218971B96FC9255
:1010E000EE921A971C961C921C971D96CC93B09268
:1010F0000602A09205028EE090E00E949E095C012B
:1011000021E044E150E061E170E00E94E702F50176
:1011100011830083D186C086F386E2861486C58754
:10112000B0920402A0920302E0914302F0914402C3
:1011300082E08083E0913F02F09140021082E091D2
:101140004102F09142028FEC808310924B02E091B9
:101150004702F091480286E08083E0914502F091D9
:101160004602808180618083E0914502F0914602D1
:10117000808188608083E0914502F0914602808101
:1011800080688083E0914502F091460280818F7DE6
:1011900080838091310290913202DC01ED91FC91CB
:1011A00060911E02062E000C770B0280F381E02D69
:1011B000099580911B0290911C02DC01ED91FC913C
:1011C00060911E02062E000C770B0280F381E02D49
:1011D00009958091190290911A02DC01ED91FC9120
:1011E00060912802062E000C770B0280F381E02D1F
:1011F00009958091170290911802DC01ED91FC9104
:1012000060912802062E000C770B0280F381E02DFE
:1012100009958091150290911602DC01ED91FC91E7
:1012200060912F02062E000C770B0280F381E02DD7
:1012300009958091130290911402DC01ED91FC91CB
:1012400060912F02062E000C770B0280F381E02DB7
:1012500009958091110290911202DC01ED91FC91AF
:1012600060913002062E000C770B0280F381E02D96
:10127000099580910F0290911002DC01ED91FC9193
:1012800060913002062E000C770B0280F381E02D76
:101290000995C0901E020C2C000CDD08EE08FF081A
:1012A000F7FE14C0E0913302F09134020190F08116
:1012B000E02D6DE283E392E0099566277727CB0165
:1012C0006C197D098E099F094AE003C04AE0C701F5
:1012D000B6010E94B20342E050E06AE371E083E3AA
:1012E00092E00E94A6000E94D80153CFA1E21A2EDC
:1012F000AA1BBB1BFD010DC0AA1FBB1FEE1FFF1FBA
:10130000A217B307E407F50720F0A21BB30BE40B09
:10131000F50B661F771F881F991F1A9469F7609550
:101320007095809590959B01AC01BD01CF0108950A
:10133000EE0FFF1F0590F491E02D0994CF93DF93FA
:101340008230910510F482E090E0E091DE02F091AD
:10135000DF0220E030E0C0E0D0E0309711F14081C2
:10136000518148175907C0F04817590761F4828125
:101370009381209719F09B838A832BC09093DF027F
:101380008093DE0226C02115310519F0421753075C
:1013900018F49A01BE01DF01EF010280F381E02D14
:1013A000DCCF2115310509F1281B390B243031051B
:1013B00090F412968D919C9113976115710521F00F
:1013C000FB019383828304C09093DF028093DE024B
:1013D000FD01329644C0FD01E20FF31F819391930A
:1013E000225031092D933C933AC02091DC02309178
:1013F000DD02232B41F4209102013091030130934F
:10140000DD022093DC0220910001309101012115C1
:10141000310541F42DB73EB74091040150910501CB
:10142000241B350BE091DC02F091DD02E217F3079B
:10143000A0F42E1B3F0B2817390778F0AC014E5F44
:101440005F4F2417350748F04E0F5F1F5093DD02A2
:101450004093DC028193919302C0E0E0F0E0CF0181
:10146000DF91CF9108950F931F93CF93DF93009750
:1014700009F48CC0FC013297138212820091DE02C3
:101480001091DF020115110581F420813181820F55
:10149000931F2091DC023091DD022817390779F57E
:1014A000F093DD02E093DC0271C0D80140E050E02F
:1014B000AE17BF0750F412962D913C911397AD01D2
:1014C0002115310509F1D901F3CF9D01DA013383EB
:1014D000228360817181860F971F8217930769F4B9
:1014E000EC0128813981260F371F2E5F3F4F318352
:1014F00020838A819B8193838283452B29F4F093F7
:10150000DF02E093DE0242C01396FC93EE93129743
:10151000ED01499159919E01240F351FE217F30700
:1015200071F480819181840F951F029611969C938E
:101530008E938281938113969C938E931297E0E011
:10154000F0E0D80112968D919C911397009719F0B5
:10155000F8018C01F6CF8D919C9198012E5F3F4F41
:10156000820F931F2091DC023091DD02281739078A
:1015700069F4309729F41092DF021092DE0202C063
:10158000138212821093DD020093DC02DF91CF916F
:101590001F910F91089581E090E0F8940C94D00A87
:0415A000F894FFCFED
:1015A4000000E002800000000000030403040000C7
:1015B400000097035703000000006F01A600070115
:1015C400B601380116012A0100000000D702C20248
:0E15D400E4029602BA02A60297020D0A000077
:107E0000112484B714BE81FFF0D085E080938100F7
:107E100082E08093C00088E18093C10086E0809377
:107E2000C20080E18093C4008EE0C9D0259A86E02C
:107E300020E33CEF91E0309385002093840096BBD3
:107E4000B09BFECF1D9AA8958150A9F7CC24DD24C4
:107E500088248394B5E0AB2EA1E19A2EF3E0BF2EE7
:107E6000A2D0813461F49FD0082FAFD0023811F036
:107E7000013811F484E001C083E08DD089C08234E0
:107E800011F484E103C0853419F485E0A6D080C0E4
:107E9000853579F488D0E82EFF2485D0082F10E0AE
:107EA000102F00270E291F29000F111F8ED06801E7
:107EB0006FC0863521F484E090D080E0DECF843638
:107EC00009F040C070D06FD0082F6DD080E0C81688
:107ED00080E7D80618F4F601B7BEE895C0E0D1E017
:107EE00062D089930C17E1F7F0E0CF16F0E7DF06D8
:107EF00018F0F601B7BEE89568D007B600FCFDCFD4
:107F0000A601A0E0B1E02C9130E011968C91119780
:107F100090E0982F8827822B932B1296FA010C0160
:107F200087BEE89511244E5F5F4FF1E0A038BF0790
:107F300051F7F601A7BEE89507B600FCFDCF97BE46
:107F4000E89526C08437B1F42ED02DD0F82E2BD052
:107F50003CD0F601EF2C8F010F5F1F4F84911BD097
:107F6000EA94F801C1F70894C11CD11CFA94CF0C13
:107F7000D11C0EC0853739F428D08EE10CD085E9AC
:107F80000AD08FE07ACF813511F488E018D01DD067
:107F900080E101D065CF982F8091C00085FFFCCF94
:107FA0009093C60008958091C00087FFFCCF809118
:107FB000C00084FD01C0A8958091C6000895E0E648
:107FC000F0E098E1908380830895EDDF803219F02E
:107FD00088E0F5DFFFCF84E1DECF1F93182FE3DFCA
:107FE0001150E9F7F2DF1F91089580E0E8DFEE27F6
:047FF000FF270994CA
:027FFE00040479
:0400000300007E007B
:00000001FF