:100000000C945D000C9485000C9485000C94850084
:100010000C9485000C9485000C9485000C9485004C
:100020000C9485000C9485000C9485000C948F042E
:100030000C9485000C9485000C9485000C9485002C
:100040000C9445040C9485000C9403080C94DD0773
:100050000C9485000C9485000C9485000C9485000C
:100060000C9450050C94850000000008000201006B
:100070000003040700000000000000000000000072
:10008000250028002B0000000000240027002A0083
:10009000040404040404040402020202020203032E
:1000A0000303030301020408102040800102040836
:1000B0001020010204081020450C11241FBECFEFB0
:1000C000D8E0DEBFCDBF11E0A0E0B1E0EAE8FFE19B
:1000D00002C005900D92AA34B107D9F722E0AAE434
:1000E000B1E001C01D92A53FB207E1F710E0CDE5F8
:1000F000D0E004C02197FE010E948B0ECC35D107C1
:10010000C9F70E947F080C94C30F0C940000FC01F7
:10011000918D228D892F90E0805C9F4F821B9109E9
:100120008F739927089580E090E0892B29F00E9431
:100130006A0781110C94000008952FB7F89460911C
:10014000FF017091000280910102909102022FBF85
:10015000089585ED8093BC008091BC0084FDFCCFA8
:1001600010920502089540918D01262F30E0240F52
:10017000311D21323105DCF4209105022430C9F40F
:10018000FC0180E090E0861758F430918D012191B8
:10019000DC01A359BE4FA30FB11D2C930196F3CFE1
:1001A00080918D01680F60938D0180E0089581E05A
:1001B000089582E00895E0916B01F0916C01309711
:1001C00029F0109207021092060209940895CF9325
:1001D000DF93AC01E0910E02F0910F023097F1F045
:1001E00090910902809108029817C0F090E0292FA1
:1001F00030E02617370754F4D901A55BBE4FEA015A
:10020000C20FD31F88818C939F5FF1CF1092090298
:1002100060930802CB01DF91CF910994DF91CF91D8
:1002200008950895E091090280910802E81730F4DA
:10023000F0E0E55BFE4F808190E008958FEF9FEF47
:1002400008959091090280910802981750F4E92FBF
:10025000F0E0E55BFE4F208130E09F5F9093090264
:1002600002C02FEF3FEFC90108958091080290E08E
:1002700020910902821B91090895CF93DF9300D04A
:10028000CDB7DEB7CB01642F49835A830E94B300F8
:100290004981842F5A81952F0F900F90DF91CF9134
:1002A0000895CF93DF931F92CDB7DEB7698361E0E6
:1002B000CE0101960E94B30081E090E00F90DF91A3
:1002C000CF910895089580E090E0089508950895ED
:1002D000CF92DF92EF92FF92CF93DF93EC01CB842A
:1002E000DC84ED84FE84072E000C880B990B0E94A1
:1002F000860DA70196010E94E10C2F853889498956
:100300005A890E94120E9B01AC01C701B6010E94DE
:10031000E20C6B877C878D879E870E944E0D9B0128
:10032000AC012C593F4F4F4F5F4FA4EBB0E00E9400
:100330009D0C28EC30E040E050E00E947E0CB901BA
:10034000203282E038070CF03EC037FD06C0253B66
:1003500031052CF064EB70E002C060E070E089854C
:10036000A8E8B0E06D01C81AD10887FDD394D60182
:10037000AA0FBB1FAA0FBB1F6D01BB0FEE08FF0822
:100380008A8528E532E0281B310987FD3395220F45
:10039000331F220F331FC901330FAA0BBB0B9C0164
:1003A000AD012C193D094E095F09DB010E94A80C23
:1003B00024EB30E040E050E00E947E0CC20ED31EE1
:1003C000E41EF51EB60188858C3080F5998548E8D5
:1003D00050E0491B510997FD5395440F551F440F99
:1003E000551F6417750784F09A8528E532E0291BAC
:1003F000310997FD3395220F331F220F331FAB01B5
:10040000261737070CF4A90142505109440F551F14
:100410002FB7F89490E0FC01EE0FFF1F8E0F9F1F87
:10042000FC01EC52FE4F528341832FBF81E0DF91EC
:10043000CF91FF90EF90DF90CF9008950895CF93E4
:10044000DF93C0E1D2E090910802809109029817F1
:1004500069F085EE92E00E9421019E012051324018
:10046000243131050CF488832196EDCFDF91CF91B3
:1004700008950E94BE0FFC01848DDF01A80FB11DFD
:10048000A35ABF4F2C91848D90E001968F739927CA
:10049000848FA689B7892C93A089B1898C918064B7
:1004A0008C93938D848D981306C00288F389E02D78
:1004B00080818F7D8083089590E0FC01E859FF4F93
:1004C0003491FC01EC55FF4F2491FC01E057FF4FA4
:1004D000E491EE2309F43BC0332339F1333091F03A
:1004E00038F43130A9F0323001F584B58F7D12C077
:1004F000373091F03830A1F03430B9F48091800079
:100500008F7D03C0809180008F77809380000DC025
:1005100084B58F7784BD09C08091B0008F7703C008
:100520008091B0008F7D8093B000F0E0EE0FFF1F50
:10053000E458FF4FA591B4918FB7F894EC916111F5
:1005400003C020952E2301C02E2B2C938FBF08951E
:100550001F93CF93DF93182FEB010E946008209721
:1005600011F460E004C0CF3FD10539F461E0812F80
:10057000DF91CF911F910C945C02E12FF0E0E859DC
:10058000FF4FE491E330F9F048F4E130B9F0E230A4
:10059000A1F584B5806284BDC8BD34C0E730E9F000
:1005A000E83019F1E43049F5809180008062809351
:1005B0008000D0938B00C0938A0024C084B58068EB
:1005C00084BDC7BD1FC0809180008068809380007B
:1005D000D0938900C093880015C08091B0008068D6
:1005E0008093B000C093B3000DC08091B0008062D2
:1005F0008093B000C093B40005C0C038D1050CF0A2
:10060000B5CFAFCFDF91CF911F9108950F931F9377
:10061000CF93DF93EC012E8988859985211141C004
:100620006817790784F18A859B85861797075CF19F
:100630000E949D00088919892A893B89DC01CB0128
:10064000801B910BA20BB30B0C851D852E853F855E
:10065000081719072A073B0798F461E08C899D89E0
:10066000892B09F060E0862F90E09D8B8C8B8B812D
:100670000E945C020E949D00688B798B8A8B9B8B09
:1006800081E08A8362C08A81882309F45EC06D811B
:10069000862F90E09D8B8C8B8B810E945C021A824E
:1006A00054C02F8921110EC068177907A4F08A85DC
:1006B0009B85861797077CF081E08F8B9A8189272D
:1006C0008A8309C0681779072CF08A859B8586176D
:1006D00097070CF41F8A8A81882351F1188E0E9493
:1006E0009D00088919892A893B89DC01CB01801B7F
:1006F000910BA20BB30B0C851D852E853F8508172A
:1007000019072A073B0708F561E08C899D89892B29
:1007100009F060E0862F90E09D8B8C8B8B810E948E
:100720005C020E949D00688B798B8A8B9B8B0DC02D
:10073000888D81110AC06D81862F90E09D8B8C8BF6
:100740008B810E945C0281E0888F8A81DF91CF914A
:100750001F910F910895CF93DF93EC018E819F81BC
:1007600018161906DCF48B819C818330910559F0B1
:100770009C01255031092230310528F024503109DF
:100780002330310558F42D81211103C060E070E061
:1007900002C06FEF70E00E94A80204C06D818B81DF
:1007A0000E945C021A82DF91CF910895CF93DF936C
:1007B000EC016E817F812D8116161706DCF48B818A
:1007C0009C818330910559F0AC014550510942306C
:1007D000510528F0445051094330510558F4222363
:1007E00031F02FEF30E0A901461B570BBA010E94F0
:1007F000A80206C081E0622F68278B810E945C02FC
:1008000081E08A83DF91CF910895CF93DF93EC014C
:100810003D852A818885998531111AC021110CC026
:100820006817790774F18A859B85861797074CF1BD
:10083000CE010E94D60325C0681779072CF08A855F
:100840009B8586179707ECF4CE010E94AB0319C075
:100850003C8531110DC0681779079CF08A859B850E
:100860008617970774F081E08C872111EDCFE0CFD8
:10087000681779072CF08A859B85861797070CF4F3
:100880001C868A81DF91CF9108951F920F920FB637
:100890000F9211242F933F938F939F93AF93BF9306
:1008A0008091FF0190910002A0910102B09102029B
:1008B0003091FE0123E0230F2D3720F40196A11D76
:1008C000B11D05C026E8230F0296A11DB11D20937E
:1008D000FE018093FF0190930002A0930102B09368
:1008E00002028091FA019091FB01A091FC01B0916C
:1008F000FD010196A11DB11D8093FA019093FB01AA
:10090000A093FC01B093FD01BF91AF919F918F9196
:100910003F912F910F900FBE0F901F9018951F922F
:100920000F920FB60F9211242F933F934F935F9323
:100930006F937F938F939F93AF93BF93EF93FF93A7
:100940008091F90187FF05C0109285001092840004
:100950001BC02091F901022E000C330B8091F8018D
:1009600090E02817390784F48091F901082E000CD3
:10097000990BFC01EE0FFF1F8E0F9F1FFC01EC5225
:10098000FE4F808186FD15C08091F9018F5F8093B5
:10099000F9012091F901022E000C330B8091F8012E
:1009A00090E028173907C4F48091F9018C3064F184
:1009B00013C08091F901082E000C990BFC01EE0F79
:1009C000FF1F8E0F9F1FFC01EC52FE4F808160E0E5
:1009D0008F730E945C02D8CF809184009091850033
:1009E000049680349C4918F480E49CE905C0809109
:1009F00084009091850004969093890080938800EC
:100A00008FEF8093F9013BC02091840030918500E5
:100A10008091F901082E000C990BFC01EE0FFF1FCD
:100A20008E0F9F1FFC01EC52FE4F81819281820F3D
:100A3000931F90938900809388008091F901082E7C
:100A4000000C990BFC01EE0FFF1F8E0F9F1FFC0186
:100A5000EC52FE4F808186FF12C08091F901082E72
:100A6000000C990BFC01EE0FFF1F8E0F9F1FFC0166
:100A7000EC52FE4F808161E08F730E945C02FF9117
:100A8000EF91BF91AF919F918F917F916F915F9106
:100A90004F913F912F910F900FBE0F901F9018957F
:100AA0001F920F920FB60F9211242F933F934F93E3
:100AB0005F936F937F938F939F93AF93BF93EF93C6
:100AC000FF938091B900887F803609F49CC068F557
:100AD000883209F45BC090F4803109F454C038F4D2
:100AE000882309F4F6C0883009F44DC0F6C0883177
:100AF00009F44CC0803209F45DC0EFC0803409F4C1
:100B000068C048F4803309F455C0883309F0E5C063
:100B10008093B001D8C0803509F44FC0883509F4FE
:100B20005DC0883409F0D9C0D6C0883909F4C7C07F
:100B3000A8F4883709F467C038F4883609F463C02C
:100B4000803709F460C0C9C0883809F4B8C080395A
:100B500009F45FC0803809F0C0C05BC0803B09F475
:100B600086C038F4803A09F466C0883A09F47FC038
:100B7000B4C0803C09F4A7C0883C09F4A4C0883BF9
:100B800009F48AC0AAC08091D30110C09091D2010B
:100B90008091D101981770F5E091D20181E08E0F1C
:100BA0008093D201F0E0EF54FE4F80818093BB0030
:100BB00085EC86C08093B0018EC0E091D20181E0C7
:100BC0008E0F8093D2018091BB00F0E0EF54FE4F76
:100BD00080839091D2018091D1016EC0E091D201C9
:100BE00081E08E0F8093D2018091BB00F0E0EF5442
:100BF000FE4F80838091040281116DC081E080935B
:100C0000030284EA61C083E0809305021092AF0181
:100C1000CFCF8091AF01803208F051C0E091AF0199
:100C200081E08E0F8093AF018091BB00F0E0E1572F
:100C3000FE4F8083BDCF85EC8093BC0010920502EF
:100C40008091AF01803230F4E091AF01F0E0E157E4
:100C5000FE4F10826091AF0170E0E0910A02F091C6
:100C60000B028FE891E009951092AF0136C084E045
:100C70008093050210928E0110928D01E0910C027A
:100C8000F0910D02099580918D01811105C081E0DF
:100C900080938D0110926D01E0918E0181E08E0FA5
:100CA00080938E01F0E0E359FE4F80818093BB007A
:100CB00090918E0180918D01981708F479CF85E885
:100CC0008093BC000AC085EC8093BC0010920502A2
:100CD00004C01092B0010E94A900FF91EF91BF9152
:100CE000AF919F918F917F916F915F914F913F91C4
:100CF0002F910F900FBE0F901F901895CF93DF93F9
:100D0000EC01862FE2E1F1E0F983E8831A826B833C
:100D10007C835F834E832D830E9460086D818B816D
:100D2000DF91CF910C945C028F929F92AF92BF9211
:100D3000FF920F931F93CF93DF93EC01F62E4801A0
:100D40005901242F40E050E00E947E068AE091E0A5
:100D5000998388832091F8012C3098F481E0820FE8
:100D60008093F801288730E0F901EE0FFF1F2E0F66
:100D70003F1FF901EC52FE4F88EB9BE09283818389
:100D800002C08FEF88872091F8012C3088F481E031
:100D9000820F8093F80130E0F901EE0FFF1F2E0F54
:100DA0003F1FF901EC52FE4F88EB9BE09283818359
:100DB00088858C3008F04FC08F2D0E946008888590
:100DC000E82FF0E09F01220F331FE20FF31FEC52D8
:100DD000FE4F9F2D9F732081207CF22EF92AF082F6
:100DE00019861A866CE00E947F0E9CE0899FB001F4
:100DF000112440E050E09A01260F371FF901EE0F51
:100E0000FF1F2E0F3F1FF901EC52FE4F908196FD00
:100E100016C04F5F5F4F4C30510569F781110FC00D
:100E20001092800082E080938100109285001092E1
:100E30008400B19A80916F00826080936F00E88592
:100E4000F0E0CF01880F991FE80FF91FEC52FE4F19
:100E50008081806480838F86988AA98ABA8ADF918C
:100E6000CF911F910F91FF90BF90AF909F908F9067
:100E70000895FC01538D448D252F30E0842F90E0A0
:100E8000821B930B541710F0CF9608950197089585
:100E9000FC01918D828D981761F0828DDF01A80F82
:100EA000B11D5D968C91928D9F5F9F73928F90E0A4
:100EB00008958FEF9FEF0895FC01918D828D981713
:100EC00031F0828DE80FF11D858D90E008958FEF50
:100ED0009FEF089588E492E00E94870021E0892B2B
:100EE00009F420E0822F0895EF92FF920F931F9351
:100EF000CF93DF93EC0181E0888F9B8D8C8D9813CD
:100F000005C0E889F989808185FD24C0F62E0B8D06
:100F100010E00F5F1F4F0F731127E02E8C8DE8122A
:100F20000CC00FB607FCFACFE889F989808185FFEC
:100F3000F5CFCE010E943B02F1CF8B8DFE01E80F71
:100F4000F11DE35AFF4FF0820B8FEA89FB89808104
:100F5000806207C0EE89FF896083E889F989808112
:100F60008064808381E090E0DF91CF911F910F91A9
:100F7000FF90EF900895CF93DF93EC01888D882345
:100F8000C9F0EA89FB89808185FD05C0A889B989F6
:100F90008C9186FD0FC00FB607FCF5CF808185FFD1
:100FA000F2CFA889B9898C9185FFEDCFCE010E943F
:100FB0003B02E7CFDF91CF9108951F920F920FB6BA
:100FC0000F9211242F933F934F935F936F937F93CF
:100FD0008F939F93AF93BF93EF93FF9388E492E037
:100FE0000E943B02FF91EF91BF91AF919F918F9132
:100FF0007F916F915F914F913F912F910F900FBE15
:101000000F901F9018951F920F920FB60F921124F8
:101010002F938F939F93EF93FF93E0915802F0915A
:1010200059028081E0915E02F0915F0282FD12C060
:101030009081809161028F5F8F732091620282178D
:1010400051F0E0916102F0E0E85BFD4F958F8093F5
:10105000610201C08081FF91EF919F918F912F914B
:101060000F900FBE0F901F901895CF92DF92EF92C6
:10107000FF920F931F93CF93DF936C017A018B0143
:10108000C0E0D0E0CE15DF0589F0D8016D918D016B
:10109000D601ED91FC910190F081E02DC6010995FA
:1010A000892B11F47E0102C02196ECCFC701DF919C
:1010B000CF911F910F91FF90EF90DF90CF90089507
:1010C00090E0FC01EC55FF4F2491FC01E057FF4FED
:1010D0008491882399F090E0880F991FFC01EA57CA
:1010E000FF4FA591B491FC01E458FF4F8591949175
:1010F0008FB7F894EC91E22BEC938FBF089578941E
:1011000084B5826084BD84B5816084BD85B582600C
:1011100085BD85B5816085BD80916E0081608093BD
:101120006E00109281008091810082608093810026
:101130008091810081608093810080918000816036
:10114000809380008091B10084608093B100809191
:10115000B00081608093B00080917A0084608093B9
:101160007A0080917A00826080937A0080917A0080
:10117000816080937A0080917A00806880937A0001
:101180001092C10080E18093BA008BED90E09093C3
:101190000D0280930C0287EE90E090930B028093F7
:1011A0000A0210920902109208021092070210928D
:1011B00006021092050281E080930402109203025D
:1011C00061E082E10E945C0261E083E10E945C02D6
:1011D0008091B9008E7F8093B9008091B9008D7F96
:1011E0008093B90088E48093B80085E48093BC00C4
:1011F0008FE192E090930F0280930E028EE090E0D8
:101200000E94910EEC0120E044E150E063E070E0C8
:101210000E947E068AE1E82E81E0F82EF982E882BB
:1012200092E3892E912C9986888624E6A22EB12CF1
:10123000BB86AA861C8691E09D87D0934702C09307
:1012400046028EE090E00E94910EEC0120E048EC16
:1012500050E064E070E00E947E06F982E8823CE99A
:10126000C32EDD24DA94D986C886AEECBFEFBB87E7
:10127000AA871C86B1E0BD87D0934502C093440283
:1012800083E190E00E94910EEC010DEC1CEC2CEC43
:101290003EE340E065E070E00E949406D093430294
:1012A000C093420283E190E00E94910EEC010DECAC
:1012B0001CEC2CEC3EE340E066E070E00E949406FB
:1012C000D0934102C09340028EE090E00E94910EC4
:1012D000EC0120E04FEF50E062E070E00E947E06FB
:1012E000F982E88299868886BB86AA861C8681E078
:1012F0008D87D0933F02C0933E0283E190E00E942D
:10130000910EEC0103E313E323EB3EE340E069E0DD
:1013100070E00E949406D0933D02C0933C0283E1AA
:1013200090E00E94910EEC0100E010E020E03FE32D
:1013300040E06AE070E00E949406D0933B02C093C4
:101340003A028EE090E00E94910EEC0120E044E130
:1013500050E06BE070E00E947E06F982E882D98658
:10136000C886AEECBFEFBB87AA871C86B1E0BD87FD
:10137000D0933902C093380289E190E00E94910E27
:10138000EC0120E04FEF50E061E170E00E947E064A
:1013900002E211E0198308838AE090E09987888748
:1013A000BB86AA8644EF442E55245394612C712C9D
:1013B0004C865D866E867F8622242394312C3D8A5E
:1013C0002C8A1E8A188ED0933702C093360289E188
:1013D00090E00E94910EEC0120E04FEF50E060E1C0
:1013E00070E00E947E0619830883D986C88686EF3E
:1013F0009FEF9B878A874C865D866E867F863D8AB7
:101400002C8A1E8A188ED0933502C09334028EE047
:1014100090E00E94910EEC0120E04FEF50E06FE071
:1014200070E00E947E06F982E88299868886BB86F3
:10143000AA861C8691E09D87D0933302C093320226
:101440008EE090E00E94910EEC0120E04FEF50E022
:101450006EE070E00E947E06F982E882D986C88636
:10146000AEECBFEFBB87AA871C86B1E0BD87D093E7
:101470003102C09330028EE090E00E94910EEC01A8
:1014800020E04FEF50E067E070E00E947E06F982B6
:10149000E88299868886BB86AA861C8681E08D872D
:1014A000D0932F02C0932E028EE090E00E94910E06
:1014B000EC0120E04FEF50E068E070E00E947E0613
:1014C000F982E882D986C886AEECBFEFBB87AA87CF
:1014D0001C86B1E0BD87D0932D02C0932C0289E118
:1014E00090E00E94910EEC0120E04FEF50E061E1AE
:1014F00070E00E947E061983088399868886BB86E1
:10150000AA864C865D866E867F863D8A2C8A81E01F
:101510008E8B188ED0932B02C0932A0289E190E023
:101520000E94910EEC0120E04FEF50E060E170E08E
:101530000E947E061983088399868886BB86AA86C0
:101540004C865D866E867F863D8A2C8A91E09E8BD6
:10155000188ED0932902C093280289E190E00E945E
:10156000910EEC0120E04FEF50E060E170E00E944E
:101570007E0619830883D986C886A6EFBFEFBB878E
:10158000AA874C865D866E867F863D8A2C8A1E8A57
:10159000188ED0932702C093260289E190E00E9422
:1015A000910EEC0120E04FEF50E061E170E00E940D
:1015B0007E0619830883D986C88686EF9FEF9B87AE
:1015C0008A874C865D866E867F863D8A2C8A1E8A37
:1015D000188ED0932502C0932402E0915802F09116
:1015E000590282E08083E0915402F091550210820A
:1015F000E0915602F09157028FEC808310926002C6
:10160000E0915C02F0915D0286E08083E0915A02F5
:10161000F0915B02808180618083E0915A02F091B9
:101620005B02808188608083E0915A02F0915B02C6
:10163000808180688083E0915A02F0915B02808112
:101640008F7D80838091460290914702DC01ED916D
:10165000FC9160911C02062E000C770B0280F38136
:10166000E02D09958091440290914502DC01ED91B5
:10167000FC9160911C02062E000C770B0280F38116
:10168000E02D09958091420290914302DC01ED9199
:10169000FC9160911302062E000C770B0280F381FF
:1016A000E02D09958091400290914102DC01ED917D
:1016B000FC9160911102062E000C770B0280F381E1
:1016C000E02D099580913E0290913F02DC01ED9161
:1016D000FC9160911D02062E000C770B0280F381B5
:1016E000E02D099580913C0290913D02DC01ED9145
:1016F000FC9160911202062E000C770B0280F381A0
:10170000E02D099580913A0290913B02DC01ED9128
:10171000FC9160911002062E000C770B0280F38181
:10172000E02D09958091380290913902DC01ED910C
:10173000FC9160911E02062E000C770B0280F38153
:10174000E02D09958091360290913702DC01ED91F0
:10175000FC9160911302062E000C770B0280F3813E
:10176000E02D09958091340290913502DC01ED91D4
:10177000FC9160911302062E000C770B0280F3811E
:10178000E02D09958091320290913302DC01ED91B8
:10179000FC9160911E02062E000C770B0280F381F3
:1017A000E02D09958091300290913102DC01ED919C
:1017B000FC9160911D02062E000C770B0280F381D4
:1017C000E02D099580912E0290912F02DC01ED9180
:1017D000FC9160911F02062E000C770B0280F381B2
:1017E000E02D099580912C0290912D02DC01ED9164
:1017F000FC9160911F02062E000C770B0280F38192
:10180000E02D099580912A0290912B02DC01ED9147
:10181000FC9160912002062E000C770B0280F38170
:10182000E02D09958091280290912902DC01ED912B
:10183000FC9160912002062E000C770B0280F38150
:10184000E02D09958091260290912702DC01ED910F
:10185000FC9160911002062E000C770B0280F38140
:10186000E02D09958091240290912502DC01ED91F3
:10187000FC9160911002062E000C770B0280F38120
:10188000E02D09950E949300DDCEE8E4F2E013829A
:10189000128288EE93E0A0E0B0E084839583A68373
:1018A000B7832AE231E03183208325EC30E03587AD
:1018B000248724EC30E03787268720EC30E0318B1A
:1018C000208B21EC30E0338B228B22EC30E0358B07
:1018D000248B26EC30E0378B268B118E128E138EE4
:1018E000148EE5EEF2E01382128284839583A68340
:1018F000B7838CE391E0918380830895052E97FB55
:101900001EF400940E94950C57FD07D00E94B00C65
:1019100007FC03D04EF40C94950C509540953095EF
:1019200021953F4F4F4F5F4F08959095809570954B
:1019300061957F4F8F4F9F4F08950E94D20CA59FB6
:10194000900DB49F900DA49F800D911D11240895BA
:10195000B7FF0C949D0C0E949D0C821B930B089565
:10196000A1E21A2EAA1BBB1BFD010DC0AA1FBB1FA3
:10197000EE1FFF1FA217B307E407F50720F0A21B15
:10198000B30BE40BF50B661F771F881F991F1A9482
:1019900069F760957095809590959B01AC01BD01AC
:1019A000CF010895A29FB001B39FC001A39F700D06
:1019B000811D1124911DB29F700D811D1124911D57
:1019C00008955058BB27AA270E94F90C0C94D80DF3
:1019D0000E94CA0D38F00E94D10D20F039F49F3FCB
:1019E00019F426F40C94C70D0EF4E095E7FB0C9463
:1019F000C10DE92F0E94E90D58F3BA17620773076A
:101A00008407950720F079F4A6F50C940B0E0EF4DC
:101A1000E0950B2EBA2FA02D0B01B90190010C01FE
:101A2000CA01A0011124FF27591B99F0593F50F416
:101A3000503E68F11A16F040A22F232F342F44276E
:101A4000585FF3CF469537952795A795F040539566
:101A5000C9F77EF41F16BA0B620B730B840BBAF036
:101A60009150A1F0FF0FBB1F661F771F881FC2F7A1
:101A70000EC0BA0F621F731F841F48F487957795B5
:101A80006795B795F7959E3F08F0B0CF9395880F6F
:101A900008F09927EE0F9795879508950E94550DA8
:101AA0006894B1110C940C0E08950E94F10D88F009
:101AB0009F5798F0B92F9927B751B0F0E1F0660F12
:101AC000771F881F991F1AF0BA95C9F714C0B13053
:101AD00091F00E940B0EB1E008950C940B0E672F4D
:101AE000782F8827B85F39F0B93FCCF38695779582
:101AF0006795B395D9F73EF490958095709561956B
:101B00007F4F8F4F9F4F0895E89409C097FB3EF495
:101B100090958095709561957F4F8F4F9F4F99233A
:101B2000A9F0F92F96E9BB279395F69587957795B8
:101B30006795B795F111F8CFFAF4BB0F11F460FF78
:101B40001BC06F5F7F4F8F4F9F4F16C0882311F0D0
:101B500096E911C0772321F09EE8872F762F05C0E4
:101B6000662371F096E8862F70E060E02AF09A957F
:101B7000660F771F881FDAF7880F9695879597F974
:101B8000089597F99F6780E870E060E008959FEFFF
:101B900080EC089500240A94161617061806090604
:101BA000089500240A9412161306140605060895D3
:101BB000092E0394000C11F4882352F0BB0F40F45B
:101BC000BF2B11F460FF04C06F5F7F4F8F4F9F4F9B
:101BD000089557FD9058440F551F59F05F3F71F01D
:101BE0004795880F97FB991F61F09F3F79F0879584
:101BF0000895121613061406551FF2CF4695F1DF0D
:101C000008C0161617061806991FF1CF869571059C
:101C1000610508940895E894BB2766277727CB01D0
:101C200097F908950E94250E0C94D80D0E94CA0DB4
:101C300038F00E94D10D20F0952311F00C94C10DC5
:101C40000C94C70D11240C940C0E0E94E90D70F336
:101C5000959FC1F3950F50E0551F629FF001729F51
:101C6000BB27F00DB11D639FAA27F00DB11DAA1F60
:101C7000649F6627B00DA11D661F829F2227B00DAD
:101C8000A11D621F739FB00DA11D621F839FA00D38
:101C9000611D221F749F3327A00D611D231F849F88
:101CA000600D211D822F762F6A2F11249F575040DF
:101CB0009AF0F1F088234AF0EE0FFF1FBB1F661F5A
:101CC000771F881F91505040A9F79E3F510580F023
:101CD0000C94C10D0C940C0E5F3FE4F3983ED4F3CA
:101CE000869577956795B795F795E7959F5FC1F7C7
:101CF000FE2B880F911D9695879597F90895991B4E
:101D000079E004C0991F961708F0961B881F7A95F2
:101D1000C9F780950895EE0FFF1F0590F491E02D0F
:101D20000994CF93DF938230910510F482E090E024
:101D3000E091F302F091F40220E030E0C0E0D0E066
:101D4000309711F14081518148175907C0F0481769
:101D5000590761F482819381209719F09B838A83CC
:101D60002BC09093F4028093F30226C02115310515
:101D700019F04217530718F49A01BE01DF01EF0171
:101D80000280F381E02DDCCF2115310509F1281BFC
:101D9000390B2430310590F412968D919C91139754
:101DA0006115710521F0FB019383828304C0909338
:101DB000F4028093F302FD01329644C0FD01E20F6C
:101DC000F31F81939193225031092D933C933AC094
:101DD0002091F1023091F202232B41F42091020173
:101DE000309103013093F2022093F102209100011F
:101DF000309101012115310541F42DB73EB74091D5
:101E0000040150910501241B350BE091F102F09182
:101E1000F202E217F307A0F42E1B3F0B2817390735
:101E200078F0AC014E5F5F4F2417350748F04E0F36
:101E30005F1F5093F2024093F1028193919302C08D
:101E4000E0E0F0E0CF01DF91CF9108950F931F9371
:101E5000CF93DF93009709F48CC0FC013297138273
:101E600012820091F3021091F4020115110581F420
:101E700020813181820F931F2091F1023091F20273
:101E80002817390779F5F093F202E093F10271C057
:101E9000D80140E050E0AE17BF0750F412962D91E4
:101EA0003C911397AD012115310509F1D901F3CF0B
:101EB0009D01DA013383228360817181860F971F30
:101EC0008217930769F4EC0128813981260F371FA7
:101ED0002E5F3F4F318320838A819B81938382834E
:101EE000452B29F4F093F402E093F30242C01396D9
:101EF000FC93EE931297ED01499159919E01240FA5
:101F0000351FE217F30771F480819181840F951FCB
:101F1000029611969C938E938281938113969C9343
:101F20008E931297E0E0F0E0D80112968D919C918B
:101F30001397009719F0F8018C01F6CF8D919C91C1
:101F400098012E5F3F4F820F931F2091F102309135
:101F5000F2022817390769F4309729F41092F40235
:101F60001092F30202C0138212821093F2020093C5
:101F7000F102DF91CF911F910F91089581E090E0E0
:0A1F8000F8940C94C30FF894FFCFFF
:101F8A000000F502800000000000670168010000FF
:101F9A00000039023902000000001E020504000098
:101FAA0000006601060300000000740735083907BF
:101FBA00BB07870048075C070000000051013D018C
:0A1FCA00630111013501210112012C
:107E0000112484B714BE81FFF0D085E080938100F7
:107E100082E08093C00088E18093C10086E0809377
:107E2000C20080E18093C4008EE0C9D0259A86E02C
:107E300020E33CEF91E0309385002093840096BBD3
:107E4000B09BFECF1D9AA8958150A9F7CC24DD24C4
:107E500088248394B5E0AB2EA1E19A2EF3E0BF2EE7
:107E6000A2D0813461F49FD0082FAFD0023811F036
:107E7000013811F484E001C083E08DD089C08234E0
:107E800011F484E103C0853419F485E0A6D080C0E4
:107E9000853579F488D0E82EFF2485D0082F10E0AE
:107EA000102F00270E291F29000F111F8ED06801E7
:107EB0006FC0863521F484E090D080E0DECF843638
:107EC00009F040C070D06FD0082F6DD080E0C81688
:107ED00080E7D80618F4F601B7BEE895C0E0D1E017
:107EE00062D089930C17E1F7F0E0CF16F0E7DF06D8
:107EF00018F0F601B7BEE89568D007B600FCFDCFD4
:107F0000A601A0E0B1E02C9130E011968C91119780
:107F100090E0982F8827822B932B1296FA010C0160
:107F200087BEE89511244E5F5F4FF1E0A038BF0790
:107F300051F7F601A7BEE89507B600FCFDCF97BE46
:107F4000E89526C08437B1F42ED02DD0F82E2BD052
:107F50003CD0F601EF2C8F010F5F1F4F84911BD097
:107F6000EA94F801C1F70894C11CD11CFA94CF0C13
:107F7000D11C0EC0853739F428D08EE10CD085E9AC
:107F80000AD08FE07ACF813511F488E018D01DD067
:107F900080E101D065CF982F8091C00085FFFCCF94
:107FA0009093C60008958091C00087FFFCCF809118
:107FB000C00084FD01C0A8958091C6000895E0E648
:107FC000F0E098E1908380830895EDDF803219F02E
:107FD00088E0F5DFFFCF84E1DECF1F93182FE3DFCA
:107FE0001150E9F7F2DF1F91089580E0E8DFEE27F6
:047FF000FF270994CA
:027FFE00040479
:0400000300007E007B
:00000001FF